{
  "_format": "hh-sol-artifact-1",
  "contractName": "SimpleEscrow",
  "sourceName": "contracts/SimpleEscrow.sol",
  "abi": [
    {
      "anonymous": false,
      "inputs": [
        {
          "indexed": false,
          "internalType": "uint256",
          "name": "escrowId",
          "type": "uint256"
        },
        {
          "indexed": false,
          "internalType": "address",
          "name": "approver",
          "type": "address"
        }
      ],
      "name": "Approved",
      "type": "event"
    },
    {
      "anonymous": false,
      "inputs": [
        {
          "indexed": false,
          "internalType": "uint256",
          "name": "escrowId",
          "type": "uint256"
        },
        {
          "indexed": false,
          "internalType": "address",
          "name": "payer",
          "type": "address"
        },
        {
          "indexed": false,
          "internalType": "uint256",
          "name": "amount",
          "type": "uint256"
        }
      ],
      "name": "Completed",
      "type": "event"
    },
    {
      "anonymous": false,
      "inputs": [
        {
          "indexed": false,
          "internalType": "uint256",
          "name": "escrowId",
          "type": "uint256"
        },
        {
          "indexed": false,
          "internalType": "string",
          "name": "title",
          "type": "string"
        },
        {
          "indexed": false,
          "internalType": "uint256",
          "name": "amount",
          "type": "uint256"
        },
        {
          "indexed": false,
          "internalType": "address",
          "name": "payer",
          "type": "address"
        },
        {
          "indexed": false,
          "internalType": "address",
          "name": "payee",
          "type": "address"
        }
      ],
      "name": "EscrowCreated",
      "type": "event"
    },
    {
      "inputs": [
        {
          "internalType": "uint256",
          "name": "_escrowId",
          "type": "uint256"
        }
      ],
      "name": "approve",
      "outputs": [],
      "stateMutability": "payable",
      "type": "function"
    },
    {
      "inputs": [
        {
          "internalType": "uint256",
          "name": "_escrowId",
          "type": "uint256"
        }
      ],
      "name": "complete",
      "outputs": [],
      "stateMutability": "nonpayable",
      "type": "function"
    },
    {
      "inputs": [
        {
          "internalType": "string",
          "name": "_title",
          "type": "string"
        },
        {
          "internalType": "uint256",
          "name": "_totalAmount",
          "type": "uint256"
        },
        {
          "internalType": "uint256",
          "name": "_deadline",
          "type": "uint256"
        },
        {
          "internalType": "address",
          "name": "_payee",
          "type": "address"
        }
      ],
      "name": "createEscrow",
      "outputs": [
        {
          "internalType": "uint256",
          "name": "",
          "type": "uint256"
        }
      ],
      "stateMutability": "nonpayable",
      "type": "function"
    },
    {
      "inputs": [],
      "name": "escrowCount",
      "outputs": [
        {
          "internalType": "uint256",
          "name": "",
          "type": "uint256"
        }
      ],
      "stateMutability": "view",
      "type": "function"
    },
    {
      "inputs": [
        {
          "internalType": "uint256",
          "name": "",
          "type": "uint256"
        }
      ],
      "name": "escrows",
      "outputs": [
        {
          "internalType": "string",
          "name": "title",
          "type": "string"
        },
        {
          "internalType": "uint256",
          "name": "totalAmount",
          "type": "uint256"
        },
        {
          "internalType": "uint256",
          "name": "deadline",
          "type": "uint256"
        },
        {
          "internalType": "address",
          "name": "payer",
          "type": "address"
        },
        {
          "internalType": "address",
          "name": "payee",
          "type": "address"
        },
        {
          "internalType": "bool",
          "name": "settled",
          "type": "bool"
        }
      ],
      "stateMutability": "view",
      "type": "function"
    },
    {
      "inputs": [
        {
          "internalType": "uint256",
          "name": "_escrowId",
          "type": "uint256"
        }
      ],
      "name": "getEscrow",
      "outputs": [
        {
          "internalType": "string",
          "name": "title",
          "type": "string"
        },
        {
          "internalType": "uint256",
          "name": "totalAmount",
          "type": "uint256"
        },
        {
          "internalType": "uint256",
          "name": "deadline",
          "type": "uint256"
        },
        {
          "internalType": "address",
          "name": "payer",
          "type": "address"
        },
        {
          "internalType": "address",
          "name": "payee",
          "type": "address"
        },
        {
          "internalType": "bool",
          "name": "settled",
          "type": "bool"
        },
        {
          "internalType": "bool",
          "name": "payerApproved",
          "type": "bool"
        },
        {
          "internalType": "bool",
          "name": "payeeApproved",
          "type": "bool"
        }
      ],
      "stateMutability": "view",
      "type": "function"
    },
    {
      "inputs": [
        {
          "internalType": "uint256",
          "name": "_escrowId",
          "type": "uint256"
        }
      ],
      "name": "refund",
      "outputs": [],
      "stateMutability": "nonpayable",
      "type": "function"
    }
  ],
  "bytecode": "0x608060405234801561001057600080fd5b50611d19806100206000396000f3fe6080604052600436106100705760003560e01c80637d19e5961161004e5780637d19e5961461010b578063971d852f1461014f578063b759f95414610178578063ff7844161461019457610070565b8063012f52ee14610075578063278ecde1146100b7578063675ac67a146100e0575b600080fd5b34801561008157600080fd5b5061009c60048036038101906100979190611088565b6101d1565b6040516100ae969594939291906111b0565b60405180910390f35b3480156100c357600080fd5b506100de60048036038101906100d99190611088565b6102e2565b005b3480156100ec57600080fd5b506100f56104f7565b6040516101029190611218565b60405180910390f35b34801561011757600080fd5b50610132600480360381019061012d9190611088565b6104fd565b604051610146989796959493929190611233565b60405180910390f35b34801561015b57600080fd5b5061017660048036038101906101719190611088565b610717565b005b610192600480360381019061018d9190611088565b610944565b005b3480156101a057600080fd5b506101bb60048036038101906101b69190611419565b610c01565b6040516101c89190611218565b60405180910390f35b60006020528060005260406000206000915090508060000180546101f4906114cb565b80601f0160208091040260200160405190810160405280929190818152602001828054610220906114cb565b801561026d5780601f106102425761010080835404028352916020019161026d565b820191906000526020600020905b81548152906001019060200180831161025057829003601f168201915b5050505050908060010154908060020154908060030160009054906101000a900473ffffffffffffffffffffffffffffffffffffffff16908060040160009054906101000a900473ffffffffffffffffffffffffffffffffffffffff16908060070160009054906101000a900460ff16905086565b600080600083815260200190815260200160002090508060030160009054906101000a900473ffffffffffffffffffffffffffffffffffffffff1673ffffffffffffffffffffffffffffffffffffffff163373ffffffffffffffffffffffffffffffffffffffff161461038a576040517f08c379a000000000000000000000000000000000000000000000000000000000815260040161038190611548565b60405180910390fd5b806002015442116103d0576040517f08c379a00000000000000000000000000000000000000000000000000000000081526004016103c7906115b4565b60405180910390fd5b8060070160009054906101000a900460ff1615610422576040517f08c379a000000000000000000000000000000000000000000000000000000000815260040161041990611620565b60405180910390fd5b61042b82610e64565b1561046b576040517f08c379a00000000000000000000000000000000000000000000000000000000081526004016104629061168c565b60405180910390fd5b60018160070160006101000a81548160ff0219169083151502179055508060030160009054906101000a900473ffffffffffffffffffffffffffffffffffffffff1673ffffffffffffffffffffffffffffffffffffffff166108fc479081150290604051600060405180830381858888f193505050501580156104f2573d6000803e3d6000fd5b505050565b60015481565b60606000806000806000806000806000808b8152602001908152602001600020905080600001816001015482600201548360030160009054906101000a900473ffffffffffffffffffffffffffffffffffffffff168460040160009054906101000a900473ffffffffffffffffffffffffffffffffffffffff168560070160009054906101000a900460ff168660050160008860030160009054906101000a900473ffffffffffffffffffffffffffffffffffffffff1673ffffffffffffffffffffffffffffffffffffffff1673ffffffffffffffffffffffffffffffffffffffff16815260200190815260200160002060009054906101000a900460ff168760050160008960040160009054906101000a900473ffffffffffffffffffffffffffffffffffffffff1673ffffffffffffffffffffffffffffffffffffffff1673ffffffffffffffffffffffffffffffffffffffff16815260200190815260200160002060009054906101000a900460ff1687805461067b906114cb565b80601f01602080910402602001604051908101604052809291908181526020018280546106a7906114cb565b80156106f45780601f106106c9576101008083540402835291602001916106f4565b820191906000526020600020905b8154815290600101906020018083116106d757829003601f168201915b505050505097509850985098509850985098509850985050919395975091939597565b600080600083815260200190815260200160002090508060030160009054906101000a900473ffffffffffffffffffffffffffffffffffffffff1673ffffffffffffffffffffffffffffffffffffffff163373ffffffffffffffffffffffffffffffffffffffff16146107bf576040517f08c379a00000000000000000000000000000000000000000000000000000000081526004016107b690611548565b60405180910390fd5b6107c882610e64565b610807576040517f08c379a00000000000000000000000000000000000000000000000000000000081526004016107fe906116f8565b60405180910390fd5b8060070160009054906101000a900460ff1615610859576040517f08c379a000000000000000000000000000000000000000000000000000000000815260040161085090611620565b60405180910390fd5b60018160070160006101000a81548160ff0219169083151502179055508060040160009054906101000a900473ffffffffffffffffffffffffffffffffffffffff1673ffffffffffffffffffffffffffffffffffffffff166108fc479081150290604051600060405180830381858888f193505050501580156108e0573d6000803e3d6000fd5b507f396e8730c0c6cc4649b336dff2f253b10fc3b1dd3c920db91fab6e4a777e037e828260030160009054906101000a900473ffffffffffffffffffffffffffffffffffffffff164760405161093893929190611718565b60405180910390a15050565b6000806000838152602001908152602001600020905080600201544211156109a1576040517f08c379a00000000000000000000000000000000000000000000000000000000081526004016109989061179b565b60405180910390fd5b8060070160009054906101000a900460ff16156109f3576040517f08c379a00000000000000000000000000000000000000000000000000000000081526004016109ea90611620565b60405180910390fd5b8060050160003373ffffffffffffffffffffffffffffffffffffffff1673ffffffffffffffffffffffffffffffffffffffff16815260200190815260200160002060009054906101000a900460ff1615610a82576040517f08c379a0000000000000000000000000000000000000000000000000000000008152600401610a7990611807565b60405180910390fd5b610a8c8233610f71565b610acb576040517f08c379a0000000000000000000000000000000000000000000000000000000008152600401610ac290611873565b60405180910390fd5b8060030160009054906101000a900473ffffffffffffffffffffffffffffffffffffffff1673ffffffffffffffffffffffffffffffffffffffff163373ffffffffffffffffffffffffffffffffffffffff1603610b6a578060010154341015610b69576040517f08c379a0000000000000000000000000000000000000000000000000000000008152600401610b60906118df565b60405180910390fd5b5b60018160050160003373ffffffffffffffffffffffffffffffffffffffff1673ffffffffffffffffffffffffffffffffffffffff16815260200190815260200160002060006101000a81548160ff0219169083151502179055507f7b39c92a7e1a86e846edaeff6eba715a046352c596794c2a374269c126a997688233604051610bf59291906118ff565b60405180910390a15050565b60008073ffffffffffffffffffffffffffffffffffffffff168273ffffffffffffffffffffffffffffffffffffffff1603610c71576040517f08c379a0000000000000000000000000000000000000000000000000000000008152600401610c6890611974565b60405180910390fd5b60016000815480929190610c84906119c3565b919050555060008060006001548152602001908152602001600020905085816000019081610cb29190611bb7565b50848160010181905550838160020181905550338160030160006101000a81548173ffffffffffffffffffffffffffffffffffffffff021916908373ffffffffffffffffffffffffffffffffffffffff160217905550828160040160006101000a81548173ffffffffffffffffffffffffffffffffffffffff021916908373ffffffffffffffffffffffffffffffffffffffff16021790555080600601339080600181540180825580915050600190039060005260206000200160009091909190916101000a81548173ffffffffffffffffffffffffffffffffffffffff021916908373ffffffffffffffffffffffffffffffffffffffff16021790555080600601839080600181540180825580915050600190039060005260206000200160009091909190916101000a81548173ffffffffffffffffffffffffffffffffffffffff021916908373ffffffffffffffffffffffffffffffffffffffff1602179055507f0b28dcdb2255618da663691a75deaa5a1153b663e679fbe61a831d15946565d960015487873387604051610e4e959493929190611c89565b60405180910390a1600154915050949350505050565b60008060008084815260200190815260200160002090508060050160008260030160009054906101000a900473ffffffffffffffffffffffffffffffffffffffff1673ffffffffffffffffffffffffffffffffffffffff1673ffffffffffffffffffffffffffffffffffffffff16815260200190815260200160002060009054906101000a900460ff168015610f6957508060050160008260040160009054906101000a900473ffffffffffffffffffffffffffffffffffffffff1673ffffffffffffffffffffffffffffffffffffffff1673ffffffffffffffffffffffffffffffffffffffff16815260200190815260200160002060009054906101000a900460ff165b915050919050565b60008060008085815260200190815260200160002090508060030160009054906101000a900473ffffffffffffffffffffffffffffffffffffffff1673ffffffffffffffffffffffffffffffffffffffff168373ffffffffffffffffffffffffffffffffffffffff16148061103557508060040160009054906101000a900473ffffffffffffffffffffffffffffffffffffffff1673ffffffffffffffffffffffffffffffffffffffff168373ffffffffffffffffffffffffffffffffffffffff16145b91505092915050565b6000604051905090565b600080fd5b600080fd5b6000819050919050565b61106581611052565b811461107057600080fd5b50565b6000813590506110828161105c565b92915050565b60006020828403121561109e5761109d611048565b5b60006110ac84828501611073565b91505092915050565b600081519050919050565b600082825260208201905092915050565b60005b838110156110ef5780820151818401526020810190506110d4565b60008484015250505050565b6000601f19601f8301169050919050565b6000611117826110b5565b61112181856110c0565b93506111318185602086016110d1565b61113a816110fb565b840191505092915050565b61114e81611052565b82525050565b600073ffffffffffffffffffffffffffffffffffffffff82169050919050565b600061117f82611154565b9050919050565b61118f81611174565b82525050565b60008115159050919050565b6111aa81611195565b82525050565b600060c08201905081810360008301526111ca818961110c565b90506111d96020830188611145565b6111e66040830187611145565b6111f36060830186611186565b6112006080830185611186565b61120d60a08301846111a1565b979650505050505050565b600060208201905061122d6000830184611145565b92915050565b600061010082019050818103600083015261124e818b61110c565b905061125d602083018a611145565b61126a6040830189611145565b6112776060830188611186565b6112846080830187611186565b61129160a08301866111a1565b61129e60c08301856111a1565b6112ab60e08301846111a1565b9998505050505050505050565b600080fd5b600080fd5b7f4e487b7100000000000000000000000000000000000000000000000000000000600052604160045260246000fd5b6112fa826110fb565b810181811067ffffffffffffffff82111715611319576113186112c2565b5b80604052505050565b600061132c61103e565b905061133882826112f1565b919050565b600067ffffffffffffffff821115611358576113576112c2565b5b611361826110fb565b9050602081019050919050565b82818337600083830152505050565b600061139061138b8461133d565b611322565b9050828152602081018484840111156113ac576113ab6112bd565b5b6113b784828561136e565b509392505050565b600082601f8301126113d4576113d36112b8565b5b81356113e484826020860161137d565b91505092915050565b6113f681611174565b811461140157600080fd5b50565b600081359050611413816113ed565b92915050565b6000806000806080858703121561143357611432611048565b5b600085013567ffffffffffffffff8111156114515761145061104d565b5b61145d878288016113bf565b945050602061146e87828801611073565b935050604061147f87828801611073565b925050606061149087828801611404565b91505092959194509250565b7f4e487b7100000000000000000000000000000000000000000000000000000000600052602260045260246000fd5b600060028204905060018216806114e357607f821691505b6020821081036114f6576114f561149c565b5b50919050565b7f4f6e6c7920706179657200000000000000000000000000000000000000000000600082015250565b6000611532600a836110c0565b915061153d826114fc565b602082019050919050565b6000602082019050818103600083015261156181611525565b9050919050565b7f446561646c696e65206e6f742070617373656400000000000000000000000000600082015250565b600061159e6013836110c0565b91506115a982611568565b602082019050919050565b600060208201905081810360008301526115cd81611591565b9050919050565b7f416c726561647920736574746c65640000000000000000000000000000000000600082015250565b600061160a600f836110c0565b9150611615826115d4565b602082019050919050565b60006020820190508181036000830152611639816115fd565b9050919050565b7f416c6c20617070726f766564202d2063616e6e6f7420726566756e6400000000600082015250565b6000611676601c836110c0565b915061168182611640565b602082019050919050565b600060208201905081810360008301526116a581611669565b9050919050565b7f4e6f7420616c6c20617070726f76656400000000000000000000000000000000600082015250565b60006116e26010836110c0565b91506116ed826116ac565b602082019050919050565b60006020820190508181036000830152611711816116d5565b9050919050565b600060608201905061172d6000830186611145565b61173a6020830185611186565b6117476040830184611145565b949350505050565b7f446561646c696e65207061737365640000000000000000000000000000000000600082015250565b6000611785600f836110c0565b91506117908261174f565b602082019050919050565b600060208201905081810360008301526117b481611778565b9050919050565b7f416c726561647920617070726f76656400000000000000000000000000000000600082015250565b60006117f16010836110c0565b91506117fc826117bb565b602082019050919050565b60006020820190508181036000830152611820816117e4565b9050919050565b7f4e6f742061207061727469636970616e74000000000000000000000000000000600082015250565b600061185d6011836110c0565b915061186882611827565b602082019050919050565b6000602082019050818103600083015261188c81611850565b9050919050565b7f4d7573742073656e642066756c6c20616d6f756e740000000000000000000000600082015250565b60006118c96015836110c0565b91506118d482611893565b602082019050919050565b600060208201905081810360008301526118f8816118bc565b9050919050565b60006040820190506119146000830185611145565b6119216020830184611186565b9392505050565b7f496e76616c696420706179656500000000000000000000000000000000000000600082015250565b600061195e600d836110c0565b915061196982611928565b602082019050919050565b6000602082019050818103600083015261198d81611951565b9050919050565b7f4e487b7100000000000000000000000000000000000000000000000000000000600052601160045260246000fd5b60006119ce82611052565b91507fffffffffffffffffffffffffffffffffffffffffffffffffffffffffffffffff8203611a00576119ff611994565b5b600182019050919050565b60008190508160005260206000209050919050565b60006020601f8301049050919050565b600082821b905092915050565b600060088302611a6d7fffffffffffffffffffffffffffffffffffffffffffffffffffffffffffffffff82611a30565b611a778683611a30565b95508019841693508086168417925050509392505050565b6000819050919050565b6000611ab4611aaf611aaa84611052565b611a8f565b611052565b9050919050565b6000819050919050565b611ace83611a99565b611ae2611ada82611abb565b848454611a3d565b825550505050565b600090565b611af7611aea565b611b02818484611ac5565b505050565b5b81811015611b2657611b1b600082611aef565b600181019050611b08565b5050565b601f821115611b6b57611b3c81611a0b565b611b4584611a20565b81016020851015611b54578190505b611b68611b6085611a20565b830182611b07565b50505b505050565b600082821c905092915050565b6000611b8e60001984600802611b70565b1980831691505092915050565b6000611ba78383611b7d565b9150826002028217905092915050565b611bc0826110b5565b67ffffffffffffffff811115611bd957611bd86112c2565b5b611be382546114cb565b611bee828285611b2a565b600060209050601f831160018114611c215760008415611c0f578287015190505b611c198582611b9b565b865550611c81565b601f198416611c2f86611a0b565b60005b82811015611c5757848901518255600182019150602085019450602081019050611c32565b86831015611c745784890151611c70601f891682611b7d565b8355505b6001600288020188555050505b505050505050565b600060a082019050611c9e6000830188611145565b8181036020830152611cb0818761110c565b9050611cbf6040830186611145565b611ccc6060830185611186565b611cd96080830184611186565b969550505050505056fea264697066735822122061ab58941ee3ea5a27da0002d74dc65779d27fd12daae2f6049819653fbaa51264736f6c63430008140033",
  "linkReferences": {},
  "deployedLinkReferences": {}
}