{"contracts/SimpleSplitBill.sol":{"SimpleSplitBill":{"abi":[{"anonymous":false,"inputs":[{"indexed":false,"internalType":"uint256","name":"billId","type":"uint256"},{"indexed":false,"internalType":"string","name":"title","type":"string"},{"indexed":false,"internalType":"uint256","name":"amount","type":"uint256"},{"indexed":false,"internalType":"address","name":"creator","type":"address"}],"name":"BillCreated","type":"event"},{"anonymous":false,"inputs":[{"indexed":false,"internalType":"uint256","name":"billId","type":"uint256"},{"indexed":false,"internalType":"address","name":"creator","type":"address"},{"indexed":false,"internalType":"uint256","name":"amount","type":"uint256"}],"name":"BillSettled","type":"event"},{"anonymous":false,"inputs":[{"indexed":false,"internalType":"uint256","name":"billId","type":"uint256"},{"indexed":false,"internalType":"address","name":"payer","type":"address"},{"indexed":false,"internalType":"uint256","name":"amount","type":"uint256"}],"name":"PaymentReceived","type":"event"},{"inputs":[],"name":"billCount","outputs":[{"internalType":"uint256","name":"","type":"uint256"}],"stateMutability":"view","type":"function"},{"inputs":[{"internalType":"uint256","name":"","type":"uint256"}],"name":"bills","outputs":[{"internalType":"string","name":"title","type":"string"},{"internalType":"uint256","name":"totalAmount","type":"uint256"},{"internalType":"uint256","name":"deadline","type":"uint256"},{"internalType":"address","name":"creator","type":"address"},{"internalType":"bool","name":"settled","type":"bool"}],"stateMutability":"view","type":"function"},{"inputs":[{"internalType":"string","name":"_title","type":"string"},{"internalType":"uint256","name":"_totalAmount","type":"uint256"},{"internalType":"uint256","name":"_deadline","type":"uint256"},{"internalType":"address[]","name":"_participants","type":"address[]"}],"name":"createBill","outputs":[{"internalType":"uint256","name":"","type":"uint256"}],"stateMutability":"nonpayable","type":"function"},{"inputs":[{"internalType":"uint256","name":"_billId","type":"uint256"}],"name":"getBill","outputs":[{"internalType":"string","name":"title","type":"string"},{"internalType":"uint256","name":"totalAmount","type":"uint256"},{"internalType":"uint256","name":"deadline","type":"uint256"},{"internalType":"address","name":"creator","type":"address"},{"internalType":"address[]","name":"participants","type":"address[]"},{"internalType":"bool","name":"settled","type":"bool"},{"internalType":"uint256","name":"paidCount","type":"uint256"}],"stateMutability":"view","type":"function"},{"inputs":[{"internalType":"uint256","name":"_billId","type":"uint256"}],"name":"payBill","outputs":[],"stateMutability":"payable","type":"function"},{"inputs":[{"internalType":"uint256","name":"_billId","type":"uint256"}],"name":"settleBill","outputs":[],"stateMutability":"nonpayable","type":"function"}],"evm":{"bytecode":{"linkReferences":{},"object":"608060405234801561001057600080fd5b50611ab8806100206000396000f3fe6080604052600436106100555760003560e01c806302c227321461005a57806328bdcde81461008357806341dc3412146100c457806342879657146100ef578063b1cd06e61461012c578063f09751901461016f575b600080fd5b34801561006657600080fd5b50610081600480360381019061007c9190610d1b565b61018b565b005b34801561008f57600080fd5b506100aa60048036038101906100a59190610d1b565b6103b8565b6040516100bb959493929190610e43565b60405180910390f35b3480156100d057600080fd5b506100d96104a3565b6040516100e69190610e9d565b60405180910390f35b3480156100fb57600080fd5b50610116600480360381019061011191906110e1565b6104a9565b6040516101239190610e9d565b60405180910390f35b34801561013857600080fd5b50610153600480360381019061014e9190610d1b565b6105eb565b604051610166979695949392919061123e565b60405180910390f35b61018960048036038101906101849190610d1b565b610850565b005b600080600083815260200190815260200160002090508060030160009054906101000a900473ffffffffffffffffffffffffffffffffffffffff1673ffffffffffffffffffffffffffffffffffffffff163373ffffffffffffffffffffffffffffffffffffffff1614610233576040517f08c379a000000000000000000000000000000000000000000000000000000000815260040161022a90611307565b60405180910390fd5b61023c82610a7d565b61027b576040517f08c379a000000000000000000000000000000000000000000000000000000000815260040161027290611373565b60405180910390fd5b8060060160009054906101000a900460ff16156102cd576040517f08c379a00000000000000000000000000000000000000000000000000000000081526004016102c4906113df565b60405180910390fd5b60018160060160006101000a81548160ff0219169083151502179055508060030160009054906101000a900473ffffffffffffffffffffffffffffffffffffffff1673ffffffffffffffffffffffffffffffffffffffff166108fc479081150290604051600060405180830381858888f19350505050158015610354573d6000803e3d6000fd5b507fcfebdaad8253b338d2ddccd58a24f53d68fa235e2d543f85c5771493412df7cd828260030160009054906101000a900473ffffffffffffffffffffffffffffffffffffffff16476040516103ac939291906113ff565b60405180910390a15050565b60006020528060005260406000206000915090508060000180546103db90611465565b80601f016020809104026020016040519081016040528092919081815260200182805461040790611465565b80156104545780601f1061042957610100808354040283529160200191610454565b820191906000526020600020905b81548152906001019060200180831161043757829003601f168201915b5050505050908060010154908060020154908060030160009054906101000a900473ffffffffffffffffffffffffffffffffffffffff16908060060160009054906101000a900460ff16905085565b60015481565b6000808251116104ee576040517f08c379a00000000000000000000000000000000000000000000000000000000081526004016104e5906114e2565b60405180910390fd5b6001600081548092919061050190611531565b91905055506000806000600154815260200190815260200160002090508581600001908161052f9190611725565b50848160010181905550838160020181905550338160030160006101000a81548173ffffffffffffffffffffffffffffffffffffffff021916908373ffffffffffffffffffffffffffffffffffffffff1602179055508281600501908051906020019061059d929190610c2a565b507f7f6ad29830404c9c0be20fba0cc2a4038a1b01db4a91c4a434ab5fb050fab2166001548787336040516105d594939291906117f7565b60405180910390a1600154915050949350505050565b60606000806000606060008060008060008a815260200190815260200160002090506000805b82600501805490508110156106d65782600401600084600501838154811061063c5761063b611843565b5b9060005260206000200160009054906101000a900473ffffffffffffffffffffffffffffffffffffffff1673ffffffffffffffffffffffffffffffffffffffff1673ffffffffffffffffffffffffffffffffffffffff16815260200190815260200160002060009054906101000a900460ff16156106c35781806106bf90611531565b9250505b80806106ce90611531565b915050610611565b5081600001826001015483600201548460030160009054906101000a900473ffffffffffffffffffffffffffffffffffffffff16856005018660060160009054906101000a900460ff168686805461072d90611465565b80601f016020809104026020016040519081016040528092919081815260200182805461075990611465565b80156107a65780601f1061077b576101008083540402835291602001916107a6565b820191906000526020600020905b81548152906001019060200180831161078957829003601f168201915b505050505096508280548060200260200160405190810160405280929190818152602001828054801561082e57602002820191906000526020600020905b8160009054906101000a900473ffffffffffffffffffffffffffffffffffffffff1673ffffffffffffffffffffffffffffffffffffffff16815260200190600101908083116107e4575b5050505050925098509850985098509850985098505050919395979092949650565b6000806000838152602001908152602001600020905080600201544211156108ad576040517f08c379a00000000000000000000000000000000000000000000000000000000081526004016108a4906118be565b60405180910390fd5b8060040160003373ffffffffffffffffffffffffffffffffffffffff1673ffffffffffffffffffffffffffffffffffffffff16815260200190815260200160002060009054906101000a900460ff161561093c576040517f08c379a00000000000000000000000000000000000000000000000000000000081526004016109339061192a565b60405180910390fd5b6109468233610b63565b610985576040517f08c379a000000000000000000000000000000000000000000000000000000000815260040161097c90611996565b60405180910390fd5b60008160050180549050826001015461099e91906119e5565b9050803410156109e3576040517f08c379a00000000000000000000000000000000000000000000000000000000081526004016109da90611a62565b60405180910390fd5b60018260040160003373ffffffffffffffffffffffffffffffffffffffff1673ffffffffffffffffffffffffffffffffffffffff16815260200190815260200160002060006101000a81548160ff0219169083151502179055507f4d3f6d68b42e1e039d6e7323b2b8bdeaf223f453882ce17a5984f4d6aabbdb33833334604051610a70939291906113ff565b60405180910390a1505050565b600080600080848152602001908152602001600020905060005b8160050180549050811015610b5757816004016000836005018381548110610ac257610ac1611843565b5b9060005260206000200160009054906101000a900473ffffffffffffffffffffffffffffffffffffffff1673ffffffffffffffffffffffffffffffffffffffff1673ffffffffffffffffffffffffffffffffffffffff16815260200190815260200160002060009054906101000a900460ff16610b4457600092505050610b5e565b8080610b4f90611531565b915050610a97565b5060019150505b919050565b600080600080858152602001908152602001600020905060005b8160050180549050811015610c1d578373ffffffffffffffffffffffffffffffffffffffff16826005018281548110610bb957610bb8611843565b5b9060005260206000200160009054906101000a900473ffffffffffffffffffffffffffffffffffffffff1673ffffffffffffffffffffffffffffffffffffffff1603610c0a57600192505050610c24565b8080610c1590611531565b915050610b7d565b5060009150505b92915050565b828054828255906000526020600020908101928215610ca3579160200282015b82811115610ca25782518260006101000a81548173ffffffffffffffffffffffffffffffffffffffff021916908373ffffffffffffffffffffffffffffffffffffffff16021790555091602001919060010190610c4a565b5b509050610cb09190610cb4565b5090565b5b80821115610ccd576000816000905550600101610cb5565b5090565b6000604051905090565b600080fd5b600080fd5b6000819050919050565b610cf881610ce5565b8114610d0357600080fd5b50565b600081359050610d1581610cef565b92915050565b600060208284031215610d3157610d30610cdb565b5b6000610d3f84828501610d06565b91505092915050565b600081519050919050565b600082825260208201905092915050565b60005b83811015610d82578082015181840152602081019050610d67565b60008484015250505050565b6000601f19601f8301169050919050565b6000610daa82610d48565b610db48185610d53565b9350610dc4818560208601610d64565b610dcd81610d8e565b840191505092915050565b610de181610ce5565b82525050565b600073ffffffffffffffffffffffffffffffffffffffff82169050919050565b6000610e1282610de7565b9050919050565b610e2281610e07565b82525050565b60008115159050919050565b610e3d81610e28565b82525050565b600060a0820190508181036000830152610e5d8188610d9f565b9050610e6c6020830187610dd8565b610e796040830186610dd8565b610e866060830185610e19565b610e936080830184610e34565b9695505050505050565b6000602082019050610eb26000830184610dd8565b92915050565b600080fd5b600080fd5b7f4e487b7100000000000000000000000000000000000000000000000000000000600052604160045260246000fd5b610efa82610d8e565b810181811067ffffffffffffffff82111715610f1957610f18610ec2565b5b80604052505050565b6000610f2c610cd1565b9050610f388282610ef1565b919050565b600067ffffffffffffffff821115610f5857610f57610ec2565b5b610f6182610d8e565b9050602081019050919050565b82818337600083830152505050565b6000610f90610f8b84610f3d565b610f22565b905082815260208101848484011115610fac57610fab610ebd565b5b610fb7848285610f6e565b509392505050565b600082601f830112610fd457610fd3610eb8565b5b8135610fe4848260208601610f7d565b91505092915050565b600067ffffffffffffffff82111561100857611007610ec2565b5b602082029050602081019050919050565b600080fd5b61102781610e07565b811461103257600080fd5b50565b6000813590506110448161101e565b92915050565b600061105d61105884610fed565b610f22565b905080838252602082019050602084028301858111156110805761107f611019565b5b835b818110156110a957806110958882611035565b845260208401935050602081019050611082565b5050509392505050565b600082601f8301126110c8576110c7610eb8565b5b81356110d884826020860161104a565b91505092915050565b600080600080608085870312156110fb576110fa610cdb565b5b600085013567ffffffffffffffff81111561111957611118610ce0565b5b61112587828801610fbf565b945050602061113687828801610d06565b935050604061114787828801610d06565b925050606085013567ffffffffffffffff81111561116857611167610ce0565b5b611174878288016110b3565b91505092959194509250565b600081519050919050565b600082825260208201905092915050565b6000819050602082019050919050565b6111b581610e07565b82525050565b60006111c783836111ac565b60208301905092915050565b6000602082019050919050565b60006111eb82611180565b6111f5818561118b565b93506112008361119c565b8060005b8381101561123157815161121888826111bb565b9750611223836111d3565b925050600181019050611204565b5085935050505092915050565b600060e0820190508181036000830152611258818a610d9f565b90506112676020830189610dd8565b6112746040830188610dd8565b6112816060830187610e19565b818103608083015261129381866111e0565b90506112a260a0830185610e34565b6112af60c0830184610dd8565b98975050505050505050565b7f4f6e6c792063726561746f720000000000000000000000000000000000000000600082015250565b60006112f1600c83610d53565b91506112fc826112bb565b602082019050919050565b60006020820190508181036000830152611320816112e4565b9050919050565b7f4e6f7420616c6c20706169640000000000000000000000000000000000000000600082015250565b600061135d600c83610d53565b915061136882611327565b602082019050919050565b6000602082019050818103600083015261138c81611350565b9050919050565b7f416c726561647920736574746c65640000000000000000000000000000000000600082015250565b60006113c9600f83610d53565b91506113d482611393565b602082019050919050565b600060208201905081810360008301526113f8816113bc565b9050919050565b60006060820190506114146000830186610dd8565b6114216020830185610e19565b61142e6040830184610dd8565b949350505050565b7f4e487b7100000000000000000000000000000000000000000000000000000000600052602260045260246000fd5b6000600282049050600182168061147d57607f821691505b6020821081036114905761148f611436565b5b50919050565b7f4e656564207061727469636970616e7473000000000000000000000000000000600082015250565b60006114cc601183610d53565b91506114d782611496565b602082019050919050565b600060208201905081810360008301526114fb816114bf565b9050919050565b7f4e487b7100000000000000000000000000000000000000000000000000000000600052601160045260246000fd5b600061153c82610ce5565b91507fffffffffffffffffffffffffffffffffffffffffffffffffffffffffffffffff820361156e5761156d611502565b5b600182019050919050565b60008190508160005260206000209050919050565b60006020601f8301049050919050565b600082821b905092915050565b6000600883026115db7fffffffffffffffffffffffffffffffffffffffffffffffffffffffffffffffff8261159e565b6115e5868361159e565b95508019841693508086168417925050509392505050565b6000819050919050565b600061162261161d61161884610ce5565b6115fd565b610ce5565b9050919050565b6000819050919050565b61163c83611607565b61165061164882611629565b8484546115ab565b825550505050565b600090565b611665611658565b611670818484611633565b505050565b5b818110156116945761168960008261165d565b600181019050611676565b5050565b601f8211156116d9576116aa81611579565b6116b38461158e565b810160208510156116c2578190505b6116d66116ce8561158e565b830182611675565b50505b505050565b600082821c905092915050565b60006116fc600019846008026116de565b1980831691505092915050565b600061171583836116eb565b9150826002028217905092915050565b61172e82610d48565b67ffffffffffffffff81111561174757611746610ec2565b5b6117518254611465565b61175c828285611698565b600060209050601f83116001811461178f576000841561177d578287015190505b6117878582611709565b8655506117ef565b601f19841661179d86611579565b60005b828110156117c5578489015182556001820191506020850194506020810190506117a0565b868310156117e257848901516117de601f8916826116eb565b8355505b6001600288020188555050505b505050505050565b600060808201905061180c6000830187610dd8565b818103602083015261181e8186610d9f565b905061182d6040830185610dd8565b61183a6060830184610e19565b95945050505050565b7f4e487b7100000000000000000000000000000000000000000000000000000000600052603260045260246000fd5b7f446561646c696e65207061737365640000000000000000000000000000000000600082015250565b60006118a8600f83610d53565b91506118b382611872565b602082019050919050565b600060208201905081810360008301526118d78161189b565b9050919050565b7f416c726561647920706169640000000000000000000000000000000000000000600082015250565b6000611914600c83610d53565b915061191f826118de565b602082019050919050565b6000602082019050818103600083015261194381611907565b9050919050565b7f4e6f742061207061727469636970616e74000000000000000000000000000000600082015250565b6000611980601183610d53565b915061198b8261194a565b602082019050919050565b600060208201905081810360008301526119af81611973565b9050919050565b7f4e487b7100000000000000000000000000000000000000000000000000000000600052601260045260246000fd5b60006119f082610ce5565b91506119fb83610ce5565b925082611a0b57611a0a6119b6565b5b828204905092915050565b7f496e73756666696369656e74207061796d656e74000000000000000000000000600082015250565b6000611a4c601483610d53565b9150611a5782611a16565b602082019050919050565b60006020820190508181036000830152611a7b81611a3f565b905091905056fea264697066735822122025b731dd5ca0c508164c0dc6c09a4395d3c5ed19cb28ba3341452afb6968f93764736f6c63430008140033","opcodes":"PUSH1 0x80 PUSH1 0x40 MSTORE CALLVALUE DUP1 ISZERO PUSH2 0x10 JUMPI PUSH1 0x0 DUP1 REVERT JUMPDEST POP PUSH2 0x1AB8 DUP1 PUSH2 0x20 PUSH1 0x0 CODECOPY PUSH1 0x0 RETURN INVALID PUSH1 0x80 PUSH1 0x40 MSTORE PUSH1 0x4 CALLDATASIZE LT PUSH2 0x55 JUMPI PUSH1 0x0 CALLDATALOAD PUSH1 0xE0 SHR DUP1 PUSH4 0x2C22732 EQ PUSH2 0x5A JUMPI DUP1 PUSH4 0x28BDCDE8 EQ PUSH2 0x83 JUMPI DUP1 PUSH4 0x41DC3412 EQ PUSH2 0xC4 JUMPI DUP1 PUSH4 0x42879657 EQ PUSH2 0xEF JUMPI DUP1 PUSH4 0xB1CD06E6 EQ PUSH2 0x12C JUMPI DUP1 PUSH4 0xF0975190 EQ PUSH2 0x16F JUMPI JUMPDEST PUSH1 0x0 DUP1 REVERT JUMPDEST CALLVALUE DUP1 ISZERO PUSH2 0x66 JUMPI PUSH1 0x0 DUP1 REVERT JUMPDEST POP PUSH2 0x81 PUSH1 0x4 DUP1 CALLDATASIZE SUB DUP2 ADD SWAP1 PUSH2 0x7C SWAP2 SWAP1 PUSH2 0xD1B JUMP JUMPDEST PUSH2 0x18B JUMP JUMPDEST STOP JUMPDEST CALLVALUE DUP1 ISZERO PUSH2 0x8F JUMPI PUSH1 0x0 DUP1 REVERT JUMPDEST POP PUSH2 0xAA PUSH1 0x4 DUP1 CALLDATASIZE SUB DUP2 ADD SWAP1 PUSH2 0xA5 SWAP2 SWAP1 PUSH2 0xD1B JUMP JUMPDEST PUSH2 0x3B8 JUMP JUMPDEST PUSH1 0x40 MLOAD PUSH2 0xBB SWAP6 SWAP5 SWAP4 SWAP3 SWAP2 SWAP1 PUSH2 0xE43 JUMP JUMPDEST PUSH1 0x40 MLOAD DUP1 SWAP2 SUB SWAP1 RETURN JUMPDEST CALLVALUE DUP1 ISZERO PUSH2 0xD0 JUMPI PUSH1 0x0 DUP1 REVERT JUMPDEST POP PUSH2 0xD9 PUSH2 0x4A3 JUMP JUMPDEST PUSH1 0x40 MLOAD PUSH2 0xE6 SWAP2 SWAP1 PUSH2 0xE9D JUMP JUMPDEST PUSH1 0x40 MLOAD DUP1 SWAP2 SUB SWAP1 RETURN JUMPDEST CALLVALUE DUP1 ISZERO PUSH2 0xFB JUMPI PUSH1 0x0 DUP1 REVERT JUMPDEST POP PUSH2 0x116 PUSH1 0x4 DUP1 CALLDATASIZE SUB DUP2 ADD SWAP1 PUSH2 0x111 SWAP2 SWAP1 PUSH2 0x10E1 JUMP JUMPDEST PUSH2 0x4A9 JUMP JUMPDEST PUSH1 0x40 MLOAD PUSH2 0x123 SWAP2 SWAP1 PUSH2 0xE9D JUMP JUMPDEST PUSH1 0x40 MLOAD DUP1 SWAP2 SUB SWAP1 RETURN JUMPDEST CALLVALUE DUP1 ISZERO PUSH2 0x138 JUMPI PUSH1 0x0 DUP1 REVERT JUMPDEST POP PUSH2 0x153 PUSH1 0x4 DUP1 CALLDATASIZE SUB DUP2 ADD SWAP1 PUSH2 0x14E SWAP2 SWAP1 PUSH2 0xD1B JUMP JUMPDEST PUSH2 0x5EB JUMP JUMPDEST PUSH1 0x40 MLOAD PUSH2 0x166 SWAP8 SWAP7 SWAP6 SWAP5 SWAP4 SWAP3 SWAP2 SWAP1 PUSH2 0x123E JUMP JUMPDEST PUSH1 0x40 MLOAD DUP1 SWAP2 SUB SWAP1 RETURN JUMPDEST PUSH2 0x189 PUSH1 0x4 DUP1 CALLDATASIZE SUB DUP2 ADD SWAP1 PUSH2 0x184 SWAP2 SWAP1 PUSH2 0xD1B JUMP JUMPDEST PUSH2 0x850 JUMP JUMPDEST STOP JUMPDEST PUSH1 0x0 DUP1 PUSH1 0x0 DUP4 DUP2 MSTORE PUSH1 0x20 ADD SWAP1 DUP2 MSTORE PUSH1 0x20 ADD PUSH1 0x0 KECCAK256 SWAP1 POP DUP1 PUSH1 0x3 ADD PUSH1 0x0 SWAP1 SLOAD SWAP1 PUSH2 0x100 EXP SWAP1 DIV PUSH20 0xFFFFFFFFFFFFFFFFFFFFFFFFFFFFFFFFFFFFFFFF AND PUSH20 0xFFFFFFFFFFFFFFFFFFFFFFFFFFFFFFFFFFFFFFFF AND CALLER PUSH20 0xFFFFFFFFFFFFFFFFFFFFFFFFFFFFFFFFFFFFFFFF AND EQ PUSH2 0x233 JUMPI PUSH1 0x40 MLOAD PUSH32 0x8C379A000000000000000000000000000000000000000000000000000000000 DUP2 MSTORE PUSH1 0x4 ADD PUSH2 0x22A SWAP1 PUSH2 0x1307 JUMP JUMPDEST PUSH1 0x40 MLOAD DUP1 SWAP2 SUB SWAP1 REVERT JUMPDEST PUSH2 0x23C DUP3 PUSH2 0xA7D JUMP JUMPDEST PUSH2 0x27B JUMPI PUSH1 0x40 MLOAD PUSH32 0x8C379A000000000000000000000000000000000000000000000000000000000 DUP2 MSTORE PUSH1 0x4 ADD PUSH2 0x272 SWAP1 PUSH2 0x1373 JUMP JUMPDEST PUSH1 0x40 MLOAD DUP1 SWAP2 SUB SWAP1 REVERT JUMPDEST DUP1 PUSH1 0x6 ADD PUSH1 0x0 SWAP1 SLOAD SWAP1 PUSH2 0x100 EXP SWAP1 DIV PUSH1 0xFF AND ISZERO PUSH2 0x2CD JUMPI PUSH1 0x40 MLOAD PUSH32 0x8C379A000000000000000000000000000000000000000000000000000000000 DUP2 MSTORE PUSH1 0x4 ADD PUSH2 0x2C4 SWAP1 PUSH2 0x13DF JUMP JUMPDEST PUSH1 0x40 MLOAD DUP1 SWAP2 SUB SWAP1 REVERT JUMPDEST PUSH1 0x1 DUP2 PUSH1 0x6 ADD PUSH1 0x0 PUSH2 0x100 EXP DUP2 SLOAD DUP2 PUSH1 0xFF MUL NOT AND SWAP1 DUP4 ISZERO ISZERO MUL OR SWAP1 SSTORE POP DUP1 PUSH1 0x3 ADD PUSH1 0x0 SWAP1 SLOAD SWAP1 PUSH2 0x100 EXP SWAP1 DIV PUSH20 0xFFFFFFFFFFFFFFFFFFFFFFFFFFFFFFFFFFFFFFFF AND PUSH20 0xFFFFFFFFFFFFFFFFFFFFFFFFFFFFFFFFFFFFFFFF AND PUSH2 0x8FC SELFBALANCE SWAP1 DUP2 ISZERO MUL SWAP1 PUSH1 0x40 MLOAD PUSH1 0x0 PUSH1 0x40 MLOAD DUP1 DUP4 SUB DUP2 DUP6 DUP9 DUP9 CALL SWAP4 POP POP POP POP ISZERO DUP1 ISZERO PUSH2 0x354 JUMPI RETURNDATASIZE PUSH1 0x0 DUP1 RETURNDATACOPY RETURNDATASIZE PUSH1 0x0 REVERT JUMPDEST POP PUSH32 0xCFEBDAAD8253B338D2DDCCD58A24F53D68FA235E2D543F85C5771493412DF7CD DUP3 DUP3 PUSH1 0x3 ADD PUSH1 0x0 SWAP1 SLOAD SWAP1 PUSH2 0x100 EXP SWAP1 DIV PUSH20 0xFFFFFFFFFFFFFFFFFFFFFFFFFFFFFFFFFFFFFFFF AND SELFBALANCE PUSH1 0x40 MLOAD PUSH2 0x3AC SWAP4 SWAP3 SWAP2 SWAP1 PUSH2 0x13FF JUMP JUMPDEST PUSH1 0x40 MLOAD DUP1 SWAP2 SUB SWAP1 LOG1 POP POP JUMP JUMPDEST PUSH1 0x0 PUSH1 0x20 MSTORE DUP1 PUSH1 0x0 MSTORE PUSH1 0x40 PUSH1 0x0 KECCAK256 PUSH1 0x0 SWAP2 POP SWAP1 POP DUP1 PUSH1 0x0 ADD DUP1 SLOAD PUSH2 0x3DB SWAP1 PUSH2 0x1465 JUMP JUMPDEST DUP1 PUSH1 0x1F ADD PUSH1 0x20 DUP1 SWAP2 DIV MUL PUSH1 0x20 ADD PUSH1 0x40 MLOAD SWAP1 DUP2 ADD PUSH1 0x40 MSTORE DUP1 SWAP3 SWAP2 SWAP1 DUP2 DUP2 MSTORE PUSH1 0x20 ADD DUP3 DUP1 SLOAD PUSH2 0x407 SWAP1 PUSH2 0x1465 JUMP JUMPDEST DUP1 ISZERO PUSH2 0x454 JUMPI DUP1 PUSH1 0x1F LT PUSH2 0x429 JUMPI PUSH2 0x100 DUP1 DUP4 SLOAD DIV MUL DUP4 MSTORE SWAP2 PUSH1 0x20 ADD SWAP2 PUSH2 0x454 JUMP JUMPDEST DUP3 ADD SWAP2 SWAP1 PUSH1 0x0 MSTORE PUSH1 0x20 PUSH1 0x0 KECCAK256 SWAP1 JUMPDEST DUP2 SLOAD DUP2 MSTORE SWAP1 PUSH1 0x1 ADD SWAP1 PUSH1 0x20 ADD DUP1 DUP4 GT PUSH2 0x437 JUMPI DUP3 SWAP1 SUB PUSH1 0x1F AND DUP3 ADD SWAP2 JUMPDEST POP POP POP POP POP SWAP1 DUP1 PUSH1 0x1 ADD SLOAD SWAP1 DUP1 PUSH1 0x2 ADD SLOAD SWAP1 DUP1 PUSH1 0x3 ADD PUSH1 0x0 SWAP1 SLOAD SWAP1 PUSH2 0x100 EXP SWAP1 DIV PUSH20 0xFFFFFFFFFFFFFFFFFFFFFFFFFFFFFFFFFFFFFFFF AND SWAP1 DUP1 PUSH1 0x6 ADD PUSH1 0x0 SWAP1 SLOAD SWAP1 PUSH2 0x100 EXP SWAP1 DIV PUSH1 0xFF AND SWAP1 POP DUP6 JUMP JUMPDEST PUSH1 0x1 SLOAD DUP2 JUMP JUMPDEST PUSH1 0x0 DUP1 DUP3 MLOAD GT PUSH2 0x4EE JUMPI PUSH1 0x40 MLOAD PUSH32 0x8C379A000000000000000000000000000000000000000000000000000000000 DUP2 MSTORE PUSH1 0x4 ADD PUSH2 0x4E5 SWAP1 PUSH2 0x14E2 JUMP JUMPDEST PUSH1 0x40 MLOAD DUP1 SWAP2 SUB SWAP1 REVERT JUMPDEST PUSH1 0x1 PUSH1 0x0 DUP2 SLOAD DUP1 SWAP3 SWAP2 SWAP1 PUSH2 0x501 SWAP1 PUSH2 0x1531 JUMP JUMPDEST SWAP2 SWAP1 POP SSTORE POP PUSH1 0x0 DUP1 PUSH1 0x0 PUSH1 0x1 SLOAD DUP2 MSTORE PUSH1 0x20 ADD SWAP1 DUP2 MSTORE PUSH1 0x20 ADD PUSH1 0x0 KECCAK256 SWAP1 POP DUP6 DUP2 PUSH1 0x0 ADD SWAP1 DUP2 PUSH2 0x52F SWAP2 SWAP1 PUSH2 0x1725 JUMP JUMPDEST POP DUP5 DUP2 PUSH1 0x1 ADD DUP2 SWAP1 SSTORE POP DUP4 DUP2 PUSH1 0x2 ADD DUP2 SWAP1 SSTORE POP CALLER DUP2 PUSH1 0x3 ADD PUSH1 0x0 PUSH2 0x100 EXP DUP2 SLOAD DUP2 PUSH20 0xFFFFFFFFFFFFFFFFFFFFFFFFFFFFFFFFFFFFFFFF MUL NOT AND SWAP1 DUP4 PUSH20 0xFFFFFFFFFFFFFFFFFFFFFFFFFFFFFFFFFFFFFFFF AND MUL OR SWAP1 SSTORE POP DUP3 DUP2 PUSH1 0x5 ADD SWAP1 DUP1 MLOAD SWAP1 PUSH1 0x20 ADD SWAP1 PUSH2 0x59D SWAP3 SWAP2 SWAP1 PUSH2 0xC2A JUMP JUMPDEST POP PUSH32 0x7F6AD29830404C9C0BE20FBA0CC2A4038A1B01DB4A91C4A434AB5FB050FAB216 PUSH1 0x1 SLOAD DUP8 DUP8 CALLER PUSH1 0x40 MLOAD PUSH2 0x5D5 SWAP5 SWAP4 SWAP3 SWAP2 SWAP1 PUSH2 0x17F7 JUMP JUMPDEST PUSH1 0x40 MLOAD DUP1 SWAP2 SUB SWAP1 LOG1 PUSH1 0x1 SLOAD SWAP2 POP POP SWAP5 SWAP4 POP POP POP POP JUMP JUMPDEST PUSH1 0x60 PUSH1 0x0 DUP1 PUSH1 0x0 PUSH1 0x60 PUSH1 0x0 DUP1 PUSH1 0x0 DUP1 PUSH1 0x0 DUP11 DUP2 MSTORE PUSH1 0x20 ADD SWAP1 DUP2 MSTORE PUSH1 0x20 ADD PUSH1 0x0 KECCAK256 SWAP1 POP PUSH1 0x0 DUP1 JUMPDEST DUP3 PUSH1 0x5 ADD DUP1 SLOAD SWAP1 POP DUP2 LT ISZERO PUSH2 0x6D6 JUMPI DUP3 PUSH1 0x4 ADD PUSH1 0x0 DUP5 PUSH1 0x5 ADD DUP4 DUP2 SLOAD DUP2 LT PUSH2 0x63C JUMPI PUSH2 0x63B PUSH2 0x1843 JUMP JUMPDEST JUMPDEST SWAP1 PUSH1 0x0 MSTORE PUSH1 0x20 PUSH1 0x0 KECCAK256 ADD PUSH1 0x0 SWAP1 SLOAD SWAP1 PUSH2 0x100 EXP SWAP1 DIV PUSH20 0xFFFFFFFFFFFFFFFFFFFFFFFFFFFFFFFFFFFFFFFF AND PUSH20 0xFFFFFFFFFFFFFFFFFFFFFFFFFFFFFFFFFFFFFFFF AND PUSH20 0xFFFFFFFFFFFFFFFFFFFFFFFFFFFFFFFFFFFFFFFF AND DUP2 MSTORE PUSH1 0x20 ADD SWAP1 DUP2 MSTORE PUSH1 0x20 ADD PUSH1 0x0 KECCAK256 PUSH1 0x0 SWAP1 SLOAD SWAP1 PUSH2 0x100 EXP SWAP1 DIV PUSH1 0xFF AND ISZERO PUSH2 0x6C3 JUMPI DUP2 DUP1 PUSH2 0x6BF SWAP1 PUSH2 0x1531 JUMP JUMPDEST SWAP3 POP POP JUMPDEST DUP1 DUP1 PUSH2 0x6CE SWAP1 PUSH2 0x1531 JUMP JUMPDEST SWAP2 POP POP PUSH2 0x611 JUMP JUMPDEST POP DUP2 PUSH1 0x0 ADD DUP3 PUSH1 0x1 ADD SLOAD DUP4 PUSH1 0x2 ADD SLOAD DUP5 PUSH1 0x3 ADD PUSH1 0x0 SWAP1 SLOAD SWAP1 PUSH2 0x100 EXP SWAP1 DIV PUSH20 0xFFFFFFFFFFFFFFFFFFFFFFFFFFFFFFFFFFFFFFFF AND DUP6 PUSH1 0x5 ADD DUP7 PUSH1 0x6 ADD PUSH1 0x0 SWAP1 SLOAD SWAP1 PUSH2 0x100 EXP SWAP1 DIV PUSH1 0xFF AND DUP7 DUP7 DUP1 SLOAD PUSH2 0x72D SWAP1 PUSH2 0x1465 JUMP JUMPDEST DUP1 PUSH1 0x1F ADD PUSH1 0x20 DUP1 SWAP2 DIV MUL PUSH1 0x20 ADD PUSH1 0x40 MLOAD SWAP1 DUP2 ADD PUSH1 0x40 MSTORE DUP1 SWAP3 SWAP2 SWAP1 DUP2 DUP2 MSTORE PUSH1 0x20 ADD DUP3 DUP1 SLOAD PUSH2 0x759 SWAP1 PUSH2 0x1465 JUMP JUMPDEST DUP1 ISZERO PUSH2 0x7A6 JUMPI DUP1 PUSH1 0x1F LT PUSH2 0x77B JUMPI PUSH2 0x100 DUP1 DUP4 SLOAD DIV MUL DUP4 MSTORE SWAP2 PUSH1 0x20 ADD SWAP2 PUSH2 0x7A6 JUMP JUMPDEST DUP3 ADD SWAP2 SWAP1 PUSH1 0x0 MSTORE PUSH1 0x20 PUSH1 0x0 KECCAK256 SWAP1 JUMPDEST DUP2 SLOAD DUP2 MSTORE SWAP1 PUSH1 0x1 ADD SWAP1 PUSH1 0x20 ADD DUP1 DUP4 GT PUSH2 0x789 JUMPI DUP3 SWAP1 SUB PUSH1 0x1F AND DUP3 ADD SWAP2 JUMPDEST POP POP POP POP POP SWAP7 POP DUP3 DUP1 SLOAD DUP1 PUSH1 0x20 MUL PUSH1 0x20 ADD PUSH1 0x40 MLOAD SWAP1 DUP2 ADD PUSH1 0x40 MSTORE DUP1 SWAP3 SWAP2 SWAP1 DUP2 DUP2 MSTORE PUSH1 0x20 ADD DUP3 DUP1 SLOAD DUP1 ISZERO PUSH2 0x82E JUMPI PUSH1 0x20 MUL DUP3 ADD SWAP2 SWAP1 PUSH1 0x0 MSTORE PUSH1 0x20 PUSH1 0x0 KECCAK256 SWAP1 JUMPDEST DUP2 PUSH1 0x0 SWAP1 SLOAD SWAP1 PUSH2 0x100 EXP SWAP1 DIV PUSH20 0xFFFFFFFFFFFFFFFFFFFFFFFFFFFFFFFFFFFFFFFF AND PUSH20 0xFFFFFFFFFFFFFFFFFFFFFFFFFFFFFFFFFFFFFFFF AND DUP2 MSTORE PUSH1 0x20 ADD SWAP1 PUSH1 0x1 ADD SWAP1 DUP1 DUP4 GT PUSH2 0x7E4 JUMPI JUMPDEST POP POP POP POP POP SWAP3 POP SWAP9 POP SWAP9 POP SWAP9 POP SWAP9 POP SWAP9 POP SWAP9 POP SWAP9 POP POP POP SWAP2 SWAP4 SWAP6 SWAP8 SWAP1 SWAP3 SWAP5 SWAP7 POP JUMP JUMPDEST PUSH1 0x0 DUP1 PUSH1 0x0 DUP4 DUP2 MSTORE PUSH1 0x20 ADD SWAP1 DUP2 MSTORE PUSH1 0x20 ADD PUSH1 0x0 KECCAK256 SWAP1 POP DUP1 PUSH1 0x2 ADD SLOAD TIMESTAMP GT ISZERO PUSH2 0x8AD JUMPI PUSH1 0x40 MLOAD PUSH32 0x8C379A000000000000000000000000000000000000000000000000000000000 DUP2 MSTORE PUSH1 0x4 ADD PUSH2 0x8A4 SWAP1 PUSH2 0x18BE JUMP JUMPDEST PUSH1 0x40 MLOAD DUP1 SWAP2 SUB SWAP1 REVERT JUMPDEST DUP1 PUSH1 0x4 ADD PUSH1 0x0 CALLER PUSH20 0xFFFFFFFFFFFFFFFFFFFFFFFFFFFFFFFFFFFFFFFF AND PUSH20 0xFFFFFFFFFFFFFFFFFFFFFFFFFFFFFFFFFFFFFFFF AND DUP2 MSTORE PUSH1 0x20 ADD SWAP1 DUP2 MSTORE PUSH1 0x20 ADD PUSH1 0x0 KECCAK256 PUSH1 0x0 SWAP1 SLOAD SWAP1 PUSH2 0x100 EXP SWAP1 DIV PUSH1 0xFF AND ISZERO PUSH2 0x93C JUMPI PUSH1 0x40 MLOAD PUSH32 0x8C379A000000000000000000000000000000000000000000000000000000000 DUP2 MSTORE PUSH1 0x4 ADD PUSH2 0x933 SWAP1 PUSH2 0x192A JUMP JUMPDEST PUSH1 0x40 MLOAD DUP1 SWAP2 SUB SWAP1 REVERT JUMPDEST PUSH2 0x946 DUP3 CALLER PUSH2 0xB63 JUMP JUMPDEST PUSH2 0x985 JUMPI PUSH1 0x40 MLOAD PUSH32 0x8C379A000000000000000000000000000000000000000000000000000000000 DUP2 MSTORE PUSH1 0x4 ADD PUSH2 0x97C SWAP1 PUSH2 0x1996 JUMP JUMPDEST PUSH1 0x40 MLOAD DUP1 SWAP2 SUB SWAP1 REVERT JUMPDEST PUSH1 0x0 DUP2 PUSH1 0x5 ADD DUP1 SLOAD SWAP1 POP DUP3 PUSH1 0x1 ADD SLOAD PUSH2 0x99E SWAP2 SWAP1 PUSH2 0x19E5 JUMP JUMPDEST SWAP1 POP DUP1 CALLVALUE LT ISZERO PUSH2 0x9E3 JUMPI PUSH1 0x40 MLOAD PUSH32 0x8C379A000000000000000000000000000000000000000000000000000000000 DUP2 MSTORE PUSH1 0x4 ADD PUSH2 0x9DA SWAP1 PUSH2 0x1A62 JUMP JUMPDEST PUSH1 0x40 MLOAD DUP1 SWAP2 SUB SWAP1 REVERT JUMPDEST PUSH1 0x1 DUP3 PUSH1 0x4 ADD PUSH1 0x0 CALLER PUSH20 0xFFFFFFFFFFFFFFFFFFFFFFFFFFFFFFFFFFFFFFFF AND PUSH20 0xFFFFFFFFFFFFFFFFFFFFFFFFFFFFFFFFFFFFFFFF AND DUP2 MSTORE PUSH1 0x20 ADD SWAP1 DUP2 MSTORE PUSH1 0x20 ADD PUSH1 0x0 KECCAK256 PUSH1 0x0 PUSH2 0x100 EXP DUP2 SLOAD DUP2 PUSH1 0xFF MUL NOT AND SWAP1 DUP4 ISZERO ISZERO MUL OR SWAP1 SSTORE POP PUSH32 0x4D3F6D68B42E1E039D6E7323B2B8BDEAF223F453882CE17A5984F4D6AABBDB33 DUP4 CALLER CALLVALUE PUSH1 0x40 MLOAD PUSH2 0xA70 SWAP4 SWAP3 SWAP2 SWAP1 PUSH2 0x13FF JUMP JUMPDEST PUSH1 0x40 MLOAD DUP1 SWAP2 SUB SWAP1 LOG1 POP POP POP JUMP JUMPDEST PUSH1 0x0 DUP1 PUSH1 0x0 DUP1 DUP5 DUP2 MSTORE PUSH1 0x20 ADD SWAP1 DUP2 MSTORE PUSH1 0x20 ADD PUSH1 0x0 KECCAK256 SWAP1 POP PUSH1 0x0 JUMPDEST DUP2 PUSH1 0x5 ADD DUP1 SLOAD SWAP1 POP DUP2 LT ISZERO PUSH2 0xB57 JUMPI DUP2 PUSH1 0x4 ADD PUSH1 0x0 DUP4 PUSH1 0x5 ADD DUP4 DUP2 SLOAD DUP2 LT PUSH2 0xAC2 JUMPI PUSH2 0xAC1 PUSH2 0x1843 JUMP JUMPDEST JUMPDEST SWAP1 PUSH1 0x0 MSTORE PUSH1 0x20 PUSH1 0x0 KECCAK256 ADD PUSH1 0x0 SWAP1 SLOAD SWAP1 PUSH2 0x100 EXP SWAP1 DIV PUSH20 0xFFFFFFFFFFFFFFFFFFFFFFFFFFFFFFFFFFFFFFFF AND PUSH20 0xFFFFFFFFFFFFFFFFFFFFFFFFFFFFFFFFFFFFFFFF AND PUSH20 0xFFFFFFFFFFFFFFFFFFFFFFFFFFFFFFFFFFFFFFFF AND DUP2 MSTORE PUSH1 0x20 ADD SWAP1 DUP2 MSTORE PUSH1 0x20 ADD PUSH1 0x0 KECCAK256 PUSH1 0x0 SWAP1 SLOAD SWAP1 PUSH2 0x100 EXP SWAP1 DIV PUSH1 0xFF AND PUSH2 0xB44 JUMPI PUSH1 0x0 SWAP3 POP POP POP PUSH2 0xB5E JUMP JUMPDEST DUP1 DUP1 PUSH2 0xB4F SWAP1 PUSH2 0x1531 JUMP JUMPDEST SWAP2 POP POP PUSH2 0xA97 JUMP JUMPDEST POP PUSH1 0x1 SWAP2 POP POP JUMPDEST SWAP2 SWAP1 POP JUMP JUMPDEST PUSH1 0x0 DUP1 PUSH1 0x0 DUP1 DUP6 DUP2 MSTORE PUSH1 0x20 ADD SWAP1 DUP2 MSTORE PUSH1 0x20 ADD PUSH1 0x0 KECCAK256 SWAP1 POP PUSH1 0x0 JUMPDEST DUP2 PUSH1 0x5 ADD DUP1 SLOAD SWAP1 POP DUP2 LT ISZERO PUSH2 0xC1D JUMPI DUP4 PUSH20 0xFFFFFFFFFFFFFFFFFFFFFFFFFFFFFFFFFFFFFFFF AND DUP3 PUSH1 0x5 ADD DUP3 DUP2 SLOAD DUP2 LT PUSH2 0xBB9 JUMPI PUSH2 0xBB8 PUSH2 0x1843 JUMP JUMPDEST JUMPDEST SWAP1 PUSH1 0x0 MSTORE PUSH1 0x20 PUSH1 0x0 KECCAK256 ADD PUSH1 0x0 SWAP1 SLOAD SWAP1 PUSH2 0x100 EXP SWAP1 DIV PUSH20 0xFFFFFFFFFFFFFFFFFFFFFFFFFFFFFFFFFFFFFFFF AND PUSH20 0xFFFFFFFFFFFFFFFFFFFFFFFFFFFFFFFFFFFFFFFF AND SUB PUSH2 0xC0A JUMPI PUSH1 0x1 SWAP3 POP POP POP PUSH2 0xC24 JUMP JUMPDEST DUP1 DUP1 PUSH2 0xC15 SWAP1 PUSH2 0x1531 JUMP JUMPDEST SWAP2 POP POP PUSH2 0xB7D JUMP JUMPDEST POP PUSH1 0x0 SWAP2 POP POP JUMPDEST SWAP3 SWAP2 POP POP JUMP JUMPDEST DUP3 DUP1 SLOAD DUP3 DUP3 SSTORE SWAP1 PUSH1 0x0 MSTORE PUSH1 0x20 PUSH1 0x0 KECCAK256 SWAP1 DUP2 ADD SWAP3 DUP3 ISZERO PUSH2 0xCA3 JUMPI SWAP2 PUSH1 0x20 MUL DUP3 ADD JUMPDEST DUP3 DUP2 GT ISZERO PUSH2 0xCA2 JUMPI DUP3 MLOAD DUP3 PUSH1 0x0 PUSH2 0x100 EXP DUP2 SLOAD DUP2 PUSH20 0xFFFFFFFFFFFFFFFFFFFFFFFFFFFFFFFFFFFFFFFF MUL NOT AND SWAP1 DUP4 PUSH20 0xFFFFFFFFFFFFFFFFFFFFFFFFFFFFFFFFFFFFFFFF AND MUL OR SWAP1 SSTORE POP SWAP2 PUSH1 0x20 ADD SWAP2 SWAP1 PUSH1 0x1 ADD SWAP1 PUSH2 0xC4A JUMP JUMPDEST JUMPDEST POP SWAP1 POP PUSH2 0xCB0 SWAP2 SWAP1 PUSH2 0xCB4 JUMP JUMPDEST POP SWAP1 JUMP JUMPDEST JUMPDEST DUP1 DUP3 GT ISZERO PUSH2 0xCCD JUMPI PUSH1 0x0 DUP2 PUSH1 0x0 SWAP1 SSTORE POP PUSH1 0x1 ADD PUSH2 0xCB5 JUMP JUMPDEST POP SWAP1 JUMP JUMPDEST PUSH1 0x0 PUSH1 0x40 MLOAD SWAP1 POP SWAP1 JUMP JUMPDEST PUSH1 0x0 DUP1 REVERT JUMPDEST PUSH1 0x0 DUP1 REVERT JUMPDEST PUSH1 0x0 DUP2 SWAP1 POP SWAP2 SWAP1 POP JUMP JUMPDEST PUSH2 0xCF8 DUP2 PUSH2 0xCE5 JUMP JUMPDEST DUP2 EQ PUSH2 0xD03 JUMPI PUSH1 0x0 DUP1 REVERT JUMPDEST POP JUMP JUMPDEST PUSH1 0x0 DUP2 CALLDATALOAD SWAP1 POP PUSH2 0xD15 DUP2 PUSH2 0xCEF JUMP JUMPDEST SWAP3 SWAP2 POP POP JUMP JUMPDEST PUSH1 0x0 PUSH1 0x20 DUP3 DUP5 SUB SLT ISZERO PUSH2 0xD31 JUMPI PUSH2 0xD30 PUSH2 0xCDB JUMP JUMPDEST JUMPDEST PUSH1 0x0 PUSH2 0xD3F DUP5 DUP3 DUP6 ADD PUSH2 0xD06 JUMP JUMPDEST SWAP2 POP POP SWAP3 SWAP2 POP POP JUMP JUMPDEST PUSH1 0x0 DUP2 MLOAD SWAP1 POP SWAP2 SWAP1 POP JUMP JUMPDEST PUSH1 0x0 DUP3 DUP3 MSTORE PUSH1 0x20 DUP3 ADD SWAP1 POP SWAP3 SWAP2 POP POP JUMP JUMPDEST PUSH1 0x0 JUMPDEST DUP4 DUP2 LT ISZERO PUSH2 0xD82 JUMPI DUP1 DUP3 ADD MLOAD DUP2 DUP5 ADD MSTORE PUSH1 0x20 DUP2 ADD SWAP1 POP PUSH2 0xD67 JUMP JUMPDEST PUSH1 0x0 DUP5 DUP5 ADD MSTORE POP POP POP POP JUMP JUMPDEST PUSH1 0x0 PUSH1 0x1F NOT PUSH1 0x1F DUP4 ADD AND SWAP1 POP SWAP2 SWAP1 POP JUMP JUMPDEST PUSH1 0x0 PUSH2 0xDAA DUP3 PUSH2 0xD48 JUMP JUMPDEST PUSH2 0xDB4 DUP2 DUP6 PUSH2 0xD53 JUMP JUMPDEST SWAP4 POP PUSH2 0xDC4 DUP2 DUP6 PUSH1 0x20 DUP7 ADD PUSH2 0xD64 JUMP JUMPDEST PUSH2 0xDCD DUP2 PUSH2 0xD8E JUMP JUMPDEST DUP5 ADD SWAP2 POP POP SWAP3 SWAP2 POP POP JUMP JUMPDEST PUSH2 0xDE1 DUP2 PUSH2 0xCE5 JUMP JUMPDEST DUP3 MSTORE POP POP JUMP JUMPDEST PUSH1 0x0 PUSH20 0xFFFFFFFFFFFFFFFFFFFFFFFFFFFFFFFFFFFFFFFF DUP3 AND SWAP1 POP SWAP2 SWAP1 POP JUMP JUMPDEST PUSH1 0x0 PUSH2 0xE12 DUP3 PUSH2 0xDE7 JUMP JUMPDEST SWAP1 POP SWAP2 SWAP1 POP JUMP JUMPDEST PUSH2 0xE22 DUP2 PUSH2 0xE07 JUMP JUMPDEST DUP3 MSTORE POP POP JUMP JUMPDEST PUSH1 0x0 DUP2 ISZERO ISZERO SWAP1 POP SWAP2 SWAP1 POP JUMP JUMPDEST PUSH2 0xE3D DUP2 PUSH2 0xE28 JUMP JUMPDEST DUP3 MSTORE POP POP JUMP JUMPDEST PUSH1 0x0 PUSH1 0xA0 DUP3 ADD SWAP1 POP DUP2 DUP2 SUB PUSH1 0x0 DUP4 ADD MSTORE PUSH2 0xE5D DUP2 DUP9 PUSH2 0xD9F JUMP JUMPDEST SWAP1 POP PUSH2 0xE6C PUSH1 0x20 DUP4 ADD DUP8 PUSH2 0xDD8 JUMP JUMPDEST PUSH2 0xE79 PUSH1 0x40 DUP4 ADD DUP7 PUSH2 0xDD8 JUMP JUMPDEST PUSH2 0xE86 PUSH1 0x60 DUP4 ADD DUP6 PUSH2 0xE19 JUMP JUMPDEST PUSH2 0xE93 PUSH1 0x80 DUP4 ADD DUP5 PUSH2 0xE34 JUMP JUMPDEST SWAP7 SWAP6 POP POP POP POP POP POP JUMP JUMPDEST PUSH1 0x0 PUSH1 0x20 DUP3 ADD SWAP1 POP PUSH2 0xEB2 PUSH1 0x0 DUP4 ADD DUP5 PUSH2 0xDD8 JUMP JUMPDEST SWAP3 SWAP2 POP POP JUMP JUMPDEST PUSH1 0x0 DUP1 REVERT JUMPDEST PUSH1 0x0 DUP1 REVERT JUMPDEST PUSH32 0x4E487B7100000000000000000000000000000000000000000000000000000000 PUSH1 0x0 MSTORE PUSH1 0x41 PUSH1 0x4 MSTORE PUSH1 0x24 PUSH1 0x0 REVERT JUMPDEST PUSH2 0xEFA DUP3 PUSH2 0xD8E JUMP JUMPDEST DUP2 ADD DUP2 DUP2 LT PUSH8 0xFFFFFFFFFFFFFFFF DUP3 GT OR ISZERO PUSH2 0xF19 JUMPI PUSH2 0xF18 PUSH2 0xEC2 JUMP JUMPDEST JUMPDEST DUP1 PUSH1 0x40 MSTORE POP POP POP JUMP JUMPDEST PUSH1 0x0 PUSH2 0xF2C PUSH2 0xCD1 JUMP JUMPDEST SWAP1 POP PUSH2 0xF38 DUP3 DUP3 PUSH2 0xEF1 JUMP JUMPDEST SWAP2 SWAP1 POP JUMP JUMPDEST PUSH1 0x0 PUSH8 0xFFFFFFFFFFFFFFFF DUP3 GT ISZERO PUSH2 0xF58 JUMPI PUSH2 0xF57 PUSH2 0xEC2 JUMP JUMPDEST JUMPDEST PUSH2 0xF61 DUP3 PUSH2 0xD8E JUMP JUMPDEST SWAP1 POP PUSH1 0x20 DUP2 ADD SWAP1 POP SWAP2 SWAP1 POP JUMP JUMPDEST DUP3 DUP2 DUP4 CALLDATACOPY PUSH1 0x0 DUP4 DUP4 ADD MSTORE POP POP POP JUMP JUMPDEST PUSH1 0x0 PUSH2 0xF90 PUSH2 0xF8B DUP5 PUSH2 0xF3D JUMP JUMPDEST PUSH2 0xF22 JUMP JUMPDEST SWAP1 POP DUP3 DUP2 MSTORE PUSH1 0x20 DUP2 ADD DUP5 DUP5 DUP5 ADD GT ISZERO PUSH2 0xFAC JUMPI PUSH2 0xFAB PUSH2 0xEBD JUMP JUMPDEST JUMPDEST PUSH2 0xFB7 DUP5 DUP3 DUP6 PUSH2 0xF6E JUMP JUMPDEST POP SWAP4 SWAP3 POP POP POP JUMP JUMPDEST PUSH1 0x0 DUP3 PUSH1 0x1F DUP4 ADD SLT PUSH2 0xFD4 JUMPI PUSH2 0xFD3 PUSH2 0xEB8 JUMP JUMPDEST JUMPDEST DUP2 CALLDATALOAD PUSH2 0xFE4 DUP5 DUP3 PUSH1 0x20 DUP7 ADD PUSH2 0xF7D JUMP JUMPDEST SWAP2 POP POP SWAP3 SWAP2 POP POP JUMP JUMPDEST PUSH1 0x0 PUSH8 0xFFFFFFFFFFFFFFFF DUP3 GT ISZERO PUSH2 0x1008 JUMPI PUSH2 0x1007 PUSH2 0xEC2 JUMP JUMPDEST JUMPDEST PUSH1 0x20 DUP3 MUL SWAP1 POP PUSH1 0x20 DUP2 ADD SWAP1 POP SWAP2 SWAP1 POP JUMP JUMPDEST PUSH1 0x0 DUP1 REVERT JUMPDEST PUSH2 0x1027 DUP2 PUSH2 0xE07 JUMP JUMPDEST DUP2 EQ PUSH2 0x1032 JUMPI PUSH1 0x0 DUP1 REVERT JUMPDEST POP JUMP JUMPDEST PUSH1 0x0 DUP2 CALLDATALOAD SWAP1 POP PUSH2 0x1044 DUP2 PUSH2 0x101E JUMP JUMPDEST SWAP3 SWAP2 POP POP JUMP JUMPDEST PUSH1 0x0 PUSH2 0x105D PUSH2 0x1058 DUP5 PUSH2 0xFED JUMP JUMPDEST PUSH2 0xF22 JUMP JUMPDEST SWAP1 POP DUP1 DUP4 DUP3 MSTORE PUSH1 0x20 DUP3 ADD SWAP1 POP PUSH1 0x20 DUP5 MUL DUP4 ADD DUP6 DUP2 GT ISZERO PUSH2 0x1080 JUMPI PUSH2 0x107F PUSH2 0x1019 JUMP JUMPDEST JUMPDEST DUP4 JUMPDEST DUP2 DUP2 LT ISZERO PUSH2 0x10A9 JUMPI DUP1 PUSH2 0x1095 DUP9 DUP3 PUSH2 0x1035 JUMP JUMPDEST DUP5 MSTORE PUSH1 0x20 DUP5 ADD SWAP4 POP POP PUSH1 0x20 DUP2 ADD SWAP1 POP PUSH2 0x1082 JUMP JUMPDEST POP POP POP SWAP4 SWAP3 POP POP POP JUMP JUMPDEST PUSH1 0x0 DUP3 PUSH1 0x1F DUP4 ADD SLT PUSH2 0x10C8 JUMPI PUSH2 0x10C7 PUSH2 0xEB8 JUMP JUMPDEST JUMPDEST DUP2 CALLDATALOAD PUSH2 0x10D8 DUP5 DUP3 PUSH1 0x20 DUP7 ADD PUSH2 0x104A JUMP JUMPDEST SWAP2 POP POP SWAP3 SWAP2 POP POP JUMP JUMPDEST PUSH1 0x0 DUP1 PUSH1 0x0 DUP1 PUSH1 0x80 DUP6 DUP8 SUB SLT ISZERO PUSH2 0x10FB JUMPI PUSH2 0x10FA PUSH2 0xCDB JUMP JUMPDEST JUMPDEST PUSH1 0x0 DUP6 ADD CALLDATALOAD PUSH8 0xFFFFFFFFFFFFFFFF DUP2 GT ISZERO PUSH2 0x1119 JUMPI PUSH2 0x1118 PUSH2 0xCE0 JUMP JUMPDEST JUMPDEST PUSH2 0x1125 DUP8 DUP3 DUP9 ADD PUSH2 0xFBF JUMP JUMPDEST SWAP5 POP POP PUSH1 0x20 PUSH2 0x1136 DUP8 DUP3 DUP9 ADD PUSH2 0xD06 JUMP JUMPDEST SWAP4 POP POP PUSH1 0x40 PUSH2 0x1147 DUP8 DUP3 DUP9 ADD PUSH2 0xD06 JUMP JUMPDEST SWAP3 POP POP PUSH1 0x60 DUP6 ADD CALLDATALOAD PUSH8 0xFFFFFFFFFFFFFFFF DUP2 GT ISZERO PUSH2 0x1168 JUMPI PUSH2 0x1167 PUSH2 0xCE0 JUMP JUMPDEST JUMPDEST PUSH2 0x1174 DUP8 DUP3 DUP9 ADD PUSH2 0x10B3 JUMP JUMPDEST SWAP2 POP POP SWAP3 SWAP6 SWAP2 SWAP5 POP SWAP3 POP JUMP JUMPDEST PUSH1 0x0 DUP2 MLOAD SWAP1 POP SWAP2 SWAP1 POP JUMP JUMPDEST PUSH1 0x0 DUP3 DUP3 MSTORE PUSH1 0x20 DUP3 ADD SWAP1 POP SWAP3 SWAP2 POP POP JUMP JUMPDEST PUSH1 0x0 DUP2 SWAP1 POP PUSH1 0x20 DUP3 ADD SWAP1 POP SWAP2 SWAP1 POP JUMP JUMPDEST PUSH2 0x11B5 DUP2 PUSH2 0xE07 JUMP JUMPDEST DUP3 MSTORE POP POP JUMP JUMPDEST PUSH1 0x0 PUSH2 0x11C7 DUP4 DUP4 PUSH2 0x11AC JUMP JUMPDEST PUSH1 0x20 DUP4 ADD SWAP1 POP SWAP3 SWAP2 POP POP JUMP JUMPDEST PUSH1 0x0 PUSH1 0x20 DUP3 ADD SWAP1 POP SWAP2 SWAP1 POP JUMP JUMPDEST PUSH1 0x0 PUSH2 0x11EB DUP3 PUSH2 0x1180 JUMP JUMPDEST PUSH2 0x11F5 DUP2 DUP6 PUSH2 0x118B JUMP JUMPDEST SWAP4 POP PUSH2 0x1200 DUP4 PUSH2 0x119C JUMP JUMPDEST DUP1 PUSH1 0x0 JUMPDEST DUP4 DUP2 LT ISZERO PUSH2 0x1231 JUMPI DUP2 MLOAD PUSH2 0x1218 DUP9 DUP3 PUSH2 0x11BB JUMP JUMPDEST SWAP8 POP PUSH2 0x1223 DUP4 PUSH2 0x11D3 JUMP JUMPDEST SWAP3 POP POP PUSH1 0x1 DUP2 ADD SWAP1 POP PUSH2 0x1204 JUMP JUMPDEST POP DUP6 SWAP4 POP POP POP POP SWAP3 SWAP2 POP POP JUMP JUMPDEST PUSH1 0x0 PUSH1 0xE0 DUP3 ADD SWAP1 POP DUP2 DUP2 SUB PUSH1 0x0 DUP4 ADD MSTORE PUSH2 0x1258 DUP2 DUP11 PUSH2 0xD9F JUMP JUMPDEST SWAP1 POP PUSH2 0x1267 PUSH1 0x20 DUP4 ADD DUP10 PUSH2 0xDD8 JUMP JUMPDEST PUSH2 0x1274 PUSH1 0x40 DUP4 ADD DUP9 PUSH2 0xDD8 JUMP JUMPDEST PUSH2 0x1281 PUSH1 0x60 DUP4 ADD DUP8 PUSH2 0xE19 JUMP JUMPDEST DUP2 DUP2 SUB PUSH1 0x80 DUP4 ADD MSTORE PUSH2 0x1293 DUP2 DUP7 PUSH2 0x11E0 JUMP JUMPDEST SWAP1 POP PUSH2 0x12A2 PUSH1 0xA0 DUP4 ADD DUP6 PUSH2 0xE34 JUMP JUMPDEST PUSH2 0x12AF PUSH1 0xC0 DUP4 ADD DUP5 PUSH2 0xDD8 JUMP JUMPDEST SWAP9 SWAP8 POP POP POP POP POP POP POP POP JUMP JUMPDEST PUSH32 0x4F6E6C792063726561746F720000000000000000000000000000000000000000 PUSH1 0x0 DUP3 ADD MSTORE POP JUMP JUMPDEST PUSH1 0x0 PUSH2 0x12F1 PUSH1 0xC DUP4 PUSH2 0xD53 JUMP JUMPDEST SWAP2 POP PUSH2 0x12FC DUP3 PUSH2 0x12BB JUMP JUMPDEST PUSH1 0x20 DUP3 ADD SWAP1 POP SWAP2 SWAP1 POP JUMP JUMPDEST PUSH1 0x0 PUSH1 0x20 DUP3 ADD SWAP1 POP DUP2 DUP2 SUB PUSH1 0x0 DUP4 ADD MSTORE PUSH2 0x1320 DUP2 PUSH2 0x12E4 JUMP JUMPDEST SWAP1 POP SWAP2 SWAP1 POP JUMP JUMPDEST PUSH32 0x4E6F7420616C6C20706169640000000000000000000000000000000000000000 PUSH1 0x0 DUP3 ADD MSTORE POP JUMP JUMPDEST PUSH1 0x0 PUSH2 0x135D PUSH1 0xC DUP4 PUSH2 0xD53 JUMP JUMPDEST SWAP2 POP PUSH2 0x1368 DUP3 PUSH2 0x1327 JUMP JUMPDEST PUSH1 0x20 DUP3 ADD SWAP1 POP SWAP2 SWAP1 POP JUMP JUMPDEST PUSH1 0x0 PUSH1 0x20 DUP3 ADD SWAP1 POP DUP2 DUP2 SUB PUSH1 0x0 DUP4 ADD MSTORE PUSH2 0x138C DUP2 PUSH2 0x1350 JUMP JUMPDEST SWAP1 POP SWAP2 SWAP1 POP JUMP JUMPDEST PUSH32 0x416C726561647920736574746C65640000000000000000000000000000000000 PUSH1 0x0 DUP3 ADD MSTORE POP JUMP JUMPDEST PUSH1 0x0 PUSH2 0x13C9 PUSH1 0xF DUP4 PUSH2 0xD53 JUMP JUMPDEST SWAP2 POP PUSH2 0x13D4 DUP3 PUSH2 0x1393 JUMP JUMPDEST PUSH1 0x20 DUP3 ADD SWAP1 POP SWAP2 SWAP1 POP JUMP JUMPDEST PUSH1 0x0 PUSH1 0x20 DUP3 ADD SWAP1 POP DUP2 DUP2 SUB PUSH1 0x0 DUP4 ADD MSTORE PUSH2 0x13F8 DUP2 PUSH2 0x13BC JUMP JUMPDEST SWAP1 POP SWAP2 SWAP1 POP JUMP JUMPDEST PUSH1 0x0 PUSH1 0x60 DUP3 ADD SWAP1 POP PUSH2 0x1414 PUSH1 0x0 DUP4 ADD DUP7 PUSH2 0xDD8 JUMP JUMPDEST PUSH2 0x1421 PUSH1 0x20 DUP4 ADD DUP6 PUSH2 0xE19 JUMP JUMPDEST PUSH2 0x142E PUSH1 0x40 DUP4 ADD DUP5 PUSH2 0xDD8 JUMP JUMPDEST SWAP5 SWAP4 POP POP POP POP JUMP JUMPDEST PUSH32 0x4E487B7100000000000000000000000000000000000000000000000000000000 PUSH1 0x0 MSTORE PUSH1 0x22 PUSH1 0x4 MSTORE PUSH1 0x24 PUSH1 0x0 REVERT JUMPDEST PUSH1 0x0 PUSH1 0x2 DUP3 DIV SWAP1 POP PUSH1 0x1 DUP3 AND DUP1 PUSH2 0x147D JUMPI PUSH1 0x7F DUP3 AND SWAP2 POP JUMPDEST PUSH1 0x20 DUP3 LT DUP2 SUB PUSH2 0x1490 JUMPI PUSH2 0x148F PUSH2 0x1436 JUMP JUMPDEST JUMPDEST POP SWAP2 SWAP1 POP JUMP JUMPDEST PUSH32 0x4E656564207061727469636970616E7473000000000000000000000000000000 PUSH1 0x0 DUP3 ADD MSTORE POP JUMP JUMPDEST PUSH1 0x0 PUSH2 0x14CC PUSH1 0x11 DUP4 PUSH2 0xD53 JUMP JUMPDEST SWAP2 POP PUSH2 0x14D7 DUP3 PUSH2 0x1496 JUMP JUMPDEST PUSH1 0x20 DUP3 ADD SWAP1 POP SWAP2 SWAP1 POP JUMP JUMPDEST PUSH1 0x0 PUSH1 0x20 DUP3 ADD SWAP1 POP DUP2 DUP2 SUB PUSH1 0x0 DUP4 ADD MSTORE PUSH2 0x14FB DUP2 PUSH2 0x14BF JUMP JUMPDEST SWAP1 POP SWAP2 SWAP1 POP JUMP JUMPDEST PUSH32 0x4E487B7100000000000000000000000000000000000000000000000000000000 PUSH1 0x0 MSTORE PUSH1 0x11 PUSH1 0x4 MSTORE PUSH1 0x24 PUSH1 0x0 REVERT JUMPDEST PUSH1 0x0 PUSH2 0x153C DUP3 PUSH2 0xCE5 JUMP JUMPDEST SWAP2 POP PUSH32 0xFFFFFFFFFFFFFFFFFFFFFFFFFFFFFFFFFFFFFFFFFFFFFFFFFFFFFFFFFFFFFFFF DUP3 SUB PUSH2 0x156E JUMPI PUSH2 0x156D PUSH2 0x1502 JUMP JUMPDEST JUMPDEST PUSH1 0x1 DUP3 ADD SWAP1 POP SWAP2 SWAP1 POP JUMP JUMPDEST PUSH1 0x0 DUP2 SWAP1 POP DUP2 PUSH1 0x0 MSTORE PUSH1 0x20 PUSH1 0x0 KECCAK256 SWAP1 POP SWAP2 SWAP1 POP JUMP JUMPDEST PUSH1 0x0 PUSH1 0x20 PUSH1 0x1F DUP4 ADD DIV SWAP1 POP SWAP2 SWAP1 POP JUMP JUMPDEST PUSH1 0x0 DUP3 DUP3 SHL SWAP1 POP SWAP3 SWAP2 POP POP JUMP JUMPDEST PUSH1 0x0 PUSH1 0x8 DUP4 MUL PUSH2 0x15DB PUSH32 0xFFFFFFFFFFFFFFFFFFFFFFFFFFFFFFFFFFFFFFFFFFFFFFFFFFFFFFFFFFFFFFFF DUP3 PUSH2 0x159E JUMP JUMPDEST PUSH2 0x15E5 DUP7 DUP4 PUSH2 0x159E JUMP JUMPDEST SWAP6 POP DUP1 NOT DUP5 AND SWAP4 POP DUP1 DUP7 AND DUP5 OR SWAP3 POP POP POP SWAP4 SWAP3 POP POP POP JUMP JUMPDEST PUSH1 0x0 DUP2 SWAP1 POP SWAP2 SWAP1 POP JUMP JUMPDEST PUSH1 0x0 PUSH2 0x1622 PUSH2 0x161D PUSH2 0x1618 DUP5 PUSH2 0xCE5 JUMP JUMPDEST PUSH2 0x15FD JUMP JUMPDEST PUSH2 0xCE5 JUMP JUMPDEST SWAP1 POP SWAP2 SWAP1 POP JUMP JUMPDEST PUSH1 0x0 DUP2 SWAP1 POP SWAP2 SWAP1 POP JUMP JUMPDEST PUSH2 0x163C DUP4 PUSH2 0x1607 JUMP JUMPDEST PUSH2 0x1650 PUSH2 0x1648 DUP3 PUSH2 0x1629 JUMP JUMPDEST DUP5 DUP5 SLOAD PUSH2 0x15AB JUMP JUMPDEST DUP3 SSTORE POP POP POP POP JUMP JUMPDEST PUSH1 0x0 SWAP1 JUMP JUMPDEST PUSH2 0x1665 PUSH2 0x1658 JUMP JUMPDEST PUSH2 0x1670 DUP2 DUP5 DUP5 PUSH2 0x1633 JUMP JUMPDEST POP POP POP JUMP JUMPDEST JUMPDEST DUP2 DUP2 LT ISZERO PUSH2 0x1694 JUMPI PUSH2 0x1689 PUSH1 0x0 DUP3 PUSH2 0x165D JUMP JUMPDEST PUSH1 0x1 DUP2 ADD SWAP1 POP PUSH2 0x1676 JUMP JUMPDEST POP POP JUMP JUMPDEST PUSH1 0x1F DUP3 GT ISZERO PUSH2 0x16D9 JUMPI PUSH2 0x16AA DUP2 PUSH2 0x1579 JUMP JUMPDEST PUSH2 0x16B3 DUP5 PUSH2 0x158E JUMP JUMPDEST DUP2 ADD PUSH1 0x20 DUP6 LT ISZERO PUSH2 0x16C2 JUMPI DUP2 SWAP1 POP JUMPDEST PUSH2 0x16D6 PUSH2 0x16CE DUP6 PUSH2 0x158E JUMP JUMPDEST DUP4 ADD DUP3 PUSH2 0x1675 JUMP JUMPDEST POP POP JUMPDEST POP POP POP JUMP JUMPDEST PUSH1 0x0 DUP3 DUP3 SHR SWAP1 POP SWAP3 SWAP2 POP POP JUMP JUMPDEST PUSH1 0x0 PUSH2 0x16FC PUSH1 0x0 NOT DUP5 PUSH1 0x8 MUL PUSH2 0x16DE JUMP JUMPDEST NOT DUP1 DUP4 AND SWAP2 POP POP SWAP3 SWAP2 POP POP JUMP JUMPDEST PUSH1 0x0 PUSH2 0x1715 DUP4 DUP4 PUSH2 0x16EB JUMP JUMPDEST SWAP2 POP DUP3 PUSH1 0x2 MUL DUP3 OR SWAP1 POP SWAP3 SWAP2 POP POP JUMP JUMPDEST PUSH2 0x172E DUP3 PUSH2 0xD48 JUMP JUMPDEST PUSH8 0xFFFFFFFFFFFFFFFF DUP2 GT ISZERO PUSH2 0x1747 JUMPI PUSH2 0x1746 PUSH2 0xEC2 JUMP JUMPDEST JUMPDEST PUSH2 0x1751 DUP3 SLOAD PUSH2 0x1465 JUMP JUMPDEST PUSH2 0x175C DUP3 DUP3 DUP6 PUSH2 0x1698 JUMP JUMPDEST PUSH1 0x0 PUSH1 0x20 SWAP1 POP PUSH1 0x1F DUP4 GT PUSH1 0x1 DUP2 EQ PUSH2 0x178F JUMPI PUSH1 0x0 DUP5 ISZERO PUSH2 0x177D JUMPI DUP3 DUP8 ADD MLOAD SWAP1 POP JUMPDEST PUSH2 0x1787 DUP6 DUP3 PUSH2 0x1709 JUMP JUMPDEST DUP7 SSTORE POP PUSH2 0x17EF JUMP JUMPDEST PUSH1 0x1F NOT DUP5 AND PUSH2 0x179D DUP7 PUSH2 0x1579 JUMP JUMPDEST PUSH1 0x0 JUMPDEST DUP3 DUP2 LT ISZERO PUSH2 0x17C5 JUMPI DUP5 DUP10 ADD MLOAD DUP3 SSTORE PUSH1 0x1 DUP3 ADD SWAP2 POP PUSH1 0x20 DUP6 ADD SWAP5 POP PUSH1 0x20 DUP2 ADD SWAP1 POP PUSH2 0x17A0 JUMP JUMPDEST DUP7 DUP4 LT ISZERO PUSH2 0x17E2 JUMPI DUP5 DUP10 ADD MLOAD PUSH2 0x17DE PUSH1 0x1F DUP10 AND DUP3 PUSH2 0x16EB JUMP JUMPDEST DUP4 SSTORE POP JUMPDEST PUSH1 0x1 PUSH1 0x2 DUP9 MUL ADD DUP9 SSTORE POP POP POP JUMPDEST POP POP POP POP POP POP JUMP JUMPDEST PUSH1 0x0 PUSH1 0x80 DUP3 ADD SWAP1 POP PUSH2 0x180C PUSH1 0x0 DUP4 ADD DUP8 PUSH2 0xDD8 JUMP JUMPDEST DUP2 DUP2 SUB PUSH1 0x20 DUP4 ADD MSTORE PUSH2 0x181E DUP2 DUP7 PUSH2 0xD9F JUMP JUMPDEST SWAP1 POP PUSH2 0x182D PUSH1 0x40 DUP4 ADD DUP6 PUSH2 0xDD8 JUMP JUMPDEST PUSH2 0x183A PUSH1 0x60 DUP4 ADD DUP5 PUSH2 0xE19 JUMP JUMPDEST SWAP6 SWAP5 POP POP POP POP POP JUMP JUMPDEST PUSH32 0x4E487B7100000000000000000000000000000000000000000000000000000000 PUSH1 0x0 MSTORE PUSH1 0x32 PUSH1 0x4 MSTORE PUSH1 0x24 PUSH1 0x0 REVERT JUMPDEST PUSH32 0x446561646C696E65207061737365640000000000000000000000000000000000 PUSH1 0x0 DUP3 ADD MSTORE POP JUMP JUMPDEST PUSH1 0x0 PUSH2 0x18A8 PUSH1 0xF DUP4 PUSH2 0xD53 JUMP JUMPDEST SWAP2 POP PUSH2 0x18B3 DUP3 PUSH2 0x1872 JUMP JUMPDEST PUSH1 0x20 DUP3 ADD SWAP1 POP SWAP2 SWAP1 POP JUMP JUMPDEST PUSH1 0x0 PUSH1 0x20 DUP3 ADD SWAP1 POP DUP2 DUP2 SUB PUSH1 0x0 DUP4 ADD MSTORE PUSH2 0x18D7 DUP2 PUSH2 0x189B JUMP JUMPDEST SWAP1 POP SWAP2 SWAP1 POP JUMP JUMPDEST PUSH32 0x416C726561647920706169640000000000000000000000000000000000000000 PUSH1 0x0 DUP3 ADD MSTORE POP JUMP JUMPDEST PUSH1 0x0 PUSH2 0x1914 PUSH1 0xC DUP4 PUSH2 0xD53 JUMP JUMPDEST SWAP2 POP PUSH2 0x191F DUP3 PUSH2 0x18DE JUMP JUMPDEST PUSH1 0x20 DUP3 ADD SWAP1 POP SWAP2 SWAP1 POP JUMP JUMPDEST PUSH1 0x0 PUSH1 0x20 DUP3 ADD SWAP1 POP DUP2 DUP2 SUB PUSH1 0x0 DUP4 ADD MSTORE PUSH2 0x1943 DUP2 PUSH2 0x1907 JUMP JUMPDEST SWAP1 POP SWAP2 SWAP1 POP JUMP JUMPDEST PUSH32 0x4E6F742061207061727469636970616E74000000000000000000000000000000 PUSH1 0x0 DUP3 ADD MSTORE POP JUMP JUMPDEST PUSH1 0x0 PUSH2 0x1980 PUSH1 0x11 DUP4 PUSH2 0xD53 JUMP JUMPDEST SWAP2 POP PUSH2 0x198B DUP3 PUSH2 0x194A JUMP JUMPDEST PUSH1 0x20 DUP3 ADD SWAP1 POP SWAP2 SWAP1 POP JUMP JUMPDEST PUSH1 0x0 PUSH1 0x20 DUP3 ADD SWAP1 POP DUP2 DUP2 SUB PUSH1 0x0 DUP4 ADD MSTORE PUSH2 0x19AF DUP2 PUSH2 0x1973 JUMP JUMPDEST SWAP1 POP SWAP2 SWAP1 POP JUMP JUMPDEST PUSH32 0x4E487B7100000000000000000000000000000000000000000000000000000000 PUSH1 0x0 MSTORE PUSH1 0x12 PUSH1 0x4 MSTORE PUSH1 0x24 PUSH1 0x0 REVERT JUMPDEST PUSH1 0x0 PUSH2 0x19F0 DUP3 PUSH2 0xCE5 JUMP JUMPDEST SWAP2 POP PUSH2 0x19FB DUP4 PUSH2 0xCE5 JUMP JUMPDEST SWAP3 POP DUP3 PUSH2 0x1A0B JUMPI PUSH2 0x1A0A PUSH2 0x19B6 JUMP JUMPDEST JUMPDEST DUP3 DUP3 DIV SWAP1 POP SWAP3 SWAP2 POP POP JUMP JUMPDEST PUSH32 0x496E73756666696369656E74207061796D656E74000000000000000000000000 PUSH1 0x0 DUP3 ADD MSTORE POP JUMP JUMPDEST PUSH1 0x0 PUSH2 0x1A4C PUSH1 0x14 DUP4 PUSH2 0xD53 JUMP JUMPDEST SWAP2 POP PUSH2 0x1A57 DUP3 PUSH2 0x1A16 JUMP JUMPDEST PUSH1 0x20 DUP3 ADD SWAP1 POP SWAP2 SWAP1 POP JUMP JUMPDEST PUSH1 0x0 PUSH1 0x20 DUP3 ADD SWAP1 POP DUP2 DUP2 SUB PUSH1 0x0 DUP4 ADD MSTORE PUSH2 0x1A7B DUP2 PUSH2 0x1A3F JUMP JUMPDEST SWAP1 POP SWAP2 SWAP1 POP JUMP INVALID LOG2 PUSH5 0x6970667358 0x22 SLT KECCAK256 0x25 0xB7 BALANCE 0xDD 0x5C LOG0 0xC5 ADDMOD AND 0x4C 0xD 0xC6 0xC0 SWAP11 NUMBER SWAP6 0xD3 0xC5 0xED NOT 0xCB 0x28 0xBA CALLER COINBASE GASLIMIT 0x2A 0xFB PUSH10 0x68F93764736F6C634300 ADDMOD EQ STOP CALLER "},"methodIdentifiers":{"billCount()":"41dc3412","bills(uint256)":"28bdcde8","createBill(string,uint256,uint256,address[])":"42879657","getBill(uint256)":"b1cd06e6","payBill(uint256)":"f0975190","settleBill(uint256)":"02c22732"}}}}}