{
  "_format": "hh-sol-artifact-1",
  "contractName": "SimpleSplitBill",
  "sourceName": "contracts/SimpleSplitBill.sol",
  "abi": [
    {
      "anonymous": false,
      "inputs": [
        {
          "indexed": false,
          "internalType": "uint256",
          "name": "billId",
          "type": "uint256"
        },
        {
          "indexed": false,
          "internalType": "string",
          "name": "title",
          "type": "string"
        },
        {
          "indexed": false,
          "internalType": "uint256",
          "name": "amount",
          "type": "uint256"
        },
        {
          "indexed": false,
          "internalType": "address",
          "name": "creator",
          "type": "address"
        }
      ],
      "name": "BillCreated",
      "type": "event"
    },
    {
      "anonymous": false,
      "inputs": [
        {
          "indexed": false,
          "internalType": "uint256",
          "name": "billId",
          "type": "uint256"
        },
        {
          "indexed": false,
          "internalType": "address",
          "name": "creator",
          "type": "address"
        },
        {
          "indexed": false,
          "internalType": "uint256",
          "name": "amount",
          "type": "uint256"
        }
      ],
      "name": "BillSettled",
      "type": "event"
    },
    {
      "anonymous": false,
      "inputs": [
        {
          "indexed": false,
          "internalType": "uint256",
          "name": "billId",
          "type": "uint256"
        },
        {
          "indexed": false,
          "internalType": "address",
          "name": "payer",
          "type": "address"
        },
        {
          "indexed": false,
          "internalType": "uint256",
          "name": "amount",
          "type": "uint256"
        }
      ],
      "name": "PaymentReceived",
      "type": "event"
    },
    {
      "inputs": [],
      "name": "billCount",
      "outputs": [
        {
          "internalType": "uint256",
          "name": "",
          "type": "uint256"
        }
      ],
      "stateMutability": "view",
      "type": "function"
    },
    {
      "inputs": [
        {
          "internalType": "uint256",
          "name": "",
          "type": "uint256"
        }
      ],
      "name": "bills",
      "outputs": [
        {
          "internalType": "string",
          "name": "title",
          "type": "string"
        },
        {
          "internalType": "uint256",
          "name": "totalAmount",
          "type": "uint256"
        },
        {
          "internalType": "uint256",
          "name": "deadline",
          "type": "uint256"
        },
        {
          "internalType": "address",
          "name": "creator",
          "type": "address"
        },
        {
          "internalType": "bool",
          "name": "settled",
          "type": "bool"
        }
      ],
      "stateMutability": "view",
      "type": "function"
    },
    {
      "inputs": [
        {
          "internalType": "string",
          "name": "_title",
          "type": "string"
        },
        {
          "internalType": "uint256",
          "name": "_totalAmount",
          "type": "uint256"
        },
        {
          "internalType": "uint256",
          "name": "_deadline",
          "type": "uint256"
        },
        {
          "internalType": "address[]",
          "name": "_participants",
          "type": "address[]"
        }
      ],
      "name": "createBill",
      "outputs": [
        {
          "internalType": "uint256",
          "name": "",
          "type": "uint256"
        }
      ],
      "stateMutability": "nonpayable",
      "type": "function"
    },
    {
      "inputs": [
        {
          "internalType": "uint256",
          "name": "_billId",
          "type": "uint256"
        }
      ],
      "name": "getBill",
      "outputs": [
        {
          "internalType": "string",
          "name": "title",
          "type": "string"
        },
        {
          "internalType": "uint256",
          "name": "totalAmount",
          "type": "uint256"
        },
        {
          "internalType": "uint256",
          "name": "deadline",
          "type": "uint256"
        },
        {
          "internalType": "address",
          "name": "creator",
          "type": "address"
        },
        {
          "internalType": "address[]",
          "name": "participants",
          "type": "address[]"
        },
        {
          "internalType": "bool",
          "name": "settled",
          "type": "bool"
        },
        {
          "internalType": "uint256",
          "name": "paidCount",
          "type": "uint256"
        }
      ],
      "stateMutability": "view",
      "type": "function"
    },
    {
      "inputs": [
        {
          "internalType": "uint256",
          "name": "_billId",
          "type": "uint256"
        }
      ],
      "name": "payBill",
      "outputs": [],
      "stateMutability": "payable",
      "type": "function"
    },
    {
      "inputs": [
        {
          "internalType": "uint256",
          "name": "_billId",
          "type": "uint256"
        }
      ],
      "name": "settleBill",
      "outputs": [],
      "stateMutability": "nonpayable",
      "type": "function"
    }
  ],
  "bytecode": "0x608060405234801561001057600080fd5b50611ab8806100206000396000f3fe6080604052600436106100555760003560e01c806302c227321461005a57806328bdcde81461008357806341dc3412146100c457806342879657146100ef578063b1cd06e61461012c578063f09751901461016f575b600080fd5b34801561006657600080fd5b50610081600480360381019061007c9190610d1b565b61018b565b005b34801561008f57600080fd5b506100aa60048036038101906100a59190610d1b565b6103b8565b6040516100bb959493929190610e43565b60405180910390f35b3480156100d057600080fd5b506100d96104a3565b6040516100e69190610e9d565b60405180910390f35b3480156100fb57600080fd5b50610116600480360381019061011191906110e1565b6104a9565b6040516101239190610e9d565b60405180910390f35b34801561013857600080fd5b50610153600480360381019061014e9190610d1b565b6105eb565b604051610166979695949392919061123e565b60405180910390f35b61018960048036038101906101849190610d1b565b610850565b005b600080600083815260200190815260200160002090508060030160009054906101000a900473ffffffffffffffffffffffffffffffffffffffff1673ffffffffffffffffffffffffffffffffffffffff163373ffffffffffffffffffffffffffffffffffffffff1614610233576040517f08c379a000000000000000000000000000000000000000000000000000000000815260040161022a90611307565b60405180910390fd5b61023c82610a7d565b61027b576040517f08c379a000000000000000000000000000000000000000000000000000000000815260040161027290611373565b60405180910390fd5b8060060160009054906101000a900460ff16156102cd576040517f08c379a00000000000000000000000000000000000000000000000000000000081526004016102c4906113df565b60405180910390fd5b60018160060160006101000a81548160ff0219169083151502179055508060030160009054906101000a900473ffffffffffffffffffffffffffffffffffffffff1673ffffffffffffffffffffffffffffffffffffffff166108fc479081150290604051600060405180830381858888f19350505050158015610354573d6000803e3d6000fd5b507fcfebdaad8253b338d2ddccd58a24f53d68fa235e2d543f85c5771493412df7cd828260030160009054906101000a900473ffffffffffffffffffffffffffffffffffffffff16476040516103ac939291906113ff565b60405180910390a15050565b60006020528060005260406000206000915090508060000180546103db90611465565b80601f016020809104026020016040519081016040528092919081815260200182805461040790611465565b80156104545780601f1061042957610100808354040283529160200191610454565b820191906000526020600020905b81548152906001019060200180831161043757829003601f168201915b5050505050908060010154908060020154908060030160009054906101000a900473ffffffffffffffffffffffffffffffffffffffff16908060060160009054906101000a900460ff16905085565b60015481565b6000808251116104ee576040517f08c379a00000000000000000000000000000000000000000000000000000000081526004016104e5906114e2565b60405180910390fd5b6001600081548092919061050190611531565b91905055506000806000600154815260200190815260200160002090508581600001908161052f9190611725565b50848160010181905550838160020181905550338160030160006101000a81548173ffffffffffffffffffffffffffffffffffffffff021916908373ffffffffffffffffffffffffffffffffffffffff1602179055508281600501908051906020019061059d929190610c2a565b507f7f6ad29830404c9c0be20fba0cc2a4038a1b01db4a91c4a434ab5fb050fab2166001548787336040516105d594939291906117f7565b60405180910390a1600154915050949350505050565b60606000806000606060008060008060008a815260200190815260200160002090506000805b82600501805490508110156106d65782600401600084600501838154811061063c5761063b611843565b5b9060005260206000200160009054906101000a900473ffffffffffffffffffffffffffffffffffffffff1673ffffffffffffffffffffffffffffffffffffffff1673ffffffffffffffffffffffffffffffffffffffff16815260200190815260200160002060009054906101000a900460ff16156106c35781806106bf90611531565b9250505b80806106ce90611531565b915050610611565b5081600001826001015483600201548460030160009054906101000a900473ffffffffffffffffffffffffffffffffffffffff16856005018660060160009054906101000a900460ff168686805461072d90611465565b80601f016020809104026020016040519081016040528092919081815260200182805461075990611465565b80156107a65780601f1061077b576101008083540402835291602001916107a6565b820191906000526020600020905b81548152906001019060200180831161078957829003601f168201915b505050505096508280548060200260200160405190810160405280929190818152602001828054801561082e57602002820191906000526020600020905b8160009054906101000a900473ffffffffffffffffffffffffffffffffffffffff1673ffffffffffffffffffffffffffffffffffffffff16815260200190600101908083116107e4575b5050505050925098509850985098509850985098505050919395979092949650565b6000806000838152602001908152602001600020905080600201544211156108ad576040517f08c379a00000000000000000000000000000000000000000000000000000000081526004016108a4906118be565b60405180910390fd5b8060040160003373ffffffffffffffffffffffffffffffffffffffff1673ffffffffffffffffffffffffffffffffffffffff16815260200190815260200160002060009054906101000a900460ff161561093c576040517f08c379a00000000000000000000000000000000000000000000000000000000081526004016109339061192a565b60405180910390fd5b6109468233610b63565b610985576040517f08c379a000000000000000000000000000000000000000000000000000000000815260040161097c90611996565b60405180910390fd5b60008160050180549050826001015461099e91906119e5565b9050803410156109e3576040517f08c379a00000000000000000000000000000000000000000000000000000000081526004016109da90611a62565b60405180910390fd5b60018260040160003373ffffffffffffffffffffffffffffffffffffffff1673ffffffffffffffffffffffffffffffffffffffff16815260200190815260200160002060006101000a81548160ff0219169083151502179055507f4d3f6d68b42e1e039d6e7323b2b8bdeaf223f453882ce17a5984f4d6aabbdb33833334604051610a70939291906113ff565b60405180910390a1505050565b600080600080848152602001908152602001600020905060005b8160050180549050811015610b5757816004016000836005018381548110610ac257610ac1611843565b5b9060005260206000200160009054906101000a900473ffffffffffffffffffffffffffffffffffffffff1673ffffffffffffffffffffffffffffffffffffffff1673ffffffffffffffffffffffffffffffffffffffff16815260200190815260200160002060009054906101000a900460ff16610b4457600092505050610b5e565b8080610b4f90611531565b915050610a97565b5060019150505b919050565b600080600080858152602001908152602001600020905060005b8160050180549050811015610c1d578373ffffffffffffffffffffffffffffffffffffffff16826005018281548110610bb957610bb8611843565b5b9060005260206000200160009054906101000a900473ffffffffffffffffffffffffffffffffffffffff1673ffffffffffffffffffffffffffffffffffffffff1603610c0a57600192505050610c24565b8080610c1590611531565b915050610b7d565b5060009150505b92915050565b828054828255906000526020600020908101928215610ca3579160200282015b82811115610ca25782518260006101000a81548173ffffffffffffffffffffffffffffffffffffffff021916908373ffffffffffffffffffffffffffffffffffffffff16021790555091602001919060010190610c4a565b5b509050610cb09190610cb4565b5090565b5b80821115610ccd576000816000905550600101610cb5565b5090565b6000604051905090565b600080fd5b600080fd5b6000819050919050565b610cf881610ce5565b8114610d0357600080fd5b50565b600081359050610d1581610cef565b92915050565b600060208284031215610d3157610d30610cdb565b5b6000610d3f84828501610d06565b91505092915050565b600081519050919050565b600082825260208201905092915050565b60005b83811015610d82578082015181840152602081019050610d67565b60008484015250505050565b6000601f19601f8301169050919050565b6000610daa82610d48565b610db48185610d53565b9350610dc4818560208601610d64565b610dcd81610d8e565b840191505092915050565b610de181610ce5565b82525050565b600073ffffffffffffffffffffffffffffffffffffffff82169050919050565b6000610e1282610de7565b9050919050565b610e2281610e07565b82525050565b60008115159050919050565b610e3d81610e28565b82525050565b600060a0820190508181036000830152610e5d8188610d9f565b9050610e6c6020830187610dd8565b610e796040830186610dd8565b610e866060830185610e19565b610e936080830184610e34565b9695505050505050565b6000602082019050610eb26000830184610dd8565b92915050565b600080fd5b600080fd5b7f4e487b7100000000000000000000000000000000000000000000000000000000600052604160045260246000fd5b610efa82610d8e565b810181811067ffffffffffffffff82111715610f1957610f18610ec2565b5b80604052505050565b6000610f2c610cd1565b9050610f388282610ef1565b919050565b600067ffffffffffffffff821115610f5857610f57610ec2565b5b610f6182610d8e565b9050602081019050919050565b82818337600083830152505050565b6000610f90610f8b84610f3d565b610f22565b905082815260208101848484011115610fac57610fab610ebd565b5b610fb7848285610f6e565b509392505050565b600082601f830112610fd457610fd3610eb8565b5b8135610fe4848260208601610f7d565b91505092915050565b600067ffffffffffffffff82111561100857611007610ec2565b5b602082029050602081019050919050565b600080fd5b61102781610e07565b811461103257600080fd5b50565b6000813590506110448161101e565b92915050565b600061105d61105884610fed565b610f22565b905080838252602082019050602084028301858111156110805761107f611019565b5b835b818110156110a957806110958882611035565b845260208401935050602081019050611082565b5050509392505050565b600082601f8301126110c8576110c7610eb8565b5b81356110d884826020860161104a565b91505092915050565b600080600080608085870312156110fb576110fa610cdb565b5b600085013567ffffffffffffffff81111561111957611118610ce0565b5b61112587828801610fbf565b945050602061113687828801610d06565b935050604061114787828801610d06565b925050606085013567ffffffffffffffff81111561116857611167610ce0565b5b611174878288016110b3565b91505092959194509250565b600081519050919050565b600082825260208201905092915050565b6000819050602082019050919050565b6111b581610e07565b82525050565b60006111c783836111ac565b60208301905092915050565b6000602082019050919050565b60006111eb82611180565b6111f5818561118b565b93506112008361119c565b8060005b8381101561123157815161121888826111bb565b9750611223836111d3565b925050600181019050611204565b5085935050505092915050565b600060e0820190508181036000830152611258818a610d9f565b90506112676020830189610dd8565b6112746040830188610dd8565b6112816060830187610e19565b818103608083015261129381866111e0565b90506112a260a0830185610e34565b6112af60c0830184610dd8565b98975050505050505050565b7f4f6e6c792063726561746f720000000000000000000000000000000000000000600082015250565b60006112f1600c83610d53565b91506112fc826112bb565b602082019050919050565b60006020820190508181036000830152611320816112e4565b9050919050565b7f4e6f7420616c6c20706169640000000000000000000000000000000000000000600082015250565b600061135d600c83610d53565b915061136882611327565b602082019050919050565b6000602082019050818103600083015261138c81611350565b9050919050565b7f416c726561647920736574746c65640000000000000000000000000000000000600082015250565b60006113c9600f83610d53565b91506113d482611393565b602082019050919050565b600060208201905081810360008301526113f8816113bc565b9050919050565b60006060820190506114146000830186610dd8565b6114216020830185610e19565b61142e6040830184610dd8565b949350505050565b7f4e487b7100000000000000000000000000000000000000000000000000000000600052602260045260246000fd5b6000600282049050600182168061147d57607f821691505b6020821081036114905761148f611436565b5b50919050565b7f4e656564207061727469636970616e7473000000000000000000000000000000600082015250565b60006114cc601183610d53565b91506114d782611496565b602082019050919050565b600060208201905081810360008301526114fb816114bf565b9050919050565b7f4e487b7100000000000000000000000000000000000000000000000000000000600052601160045260246000fd5b600061153c82610ce5565b91507fffffffffffffffffffffffffffffffffffffffffffffffffffffffffffffffff820361156e5761156d611502565b5b600182019050919050565b60008190508160005260206000209050919050565b60006020601f8301049050919050565b600082821b905092915050565b6000600883026115db7fffffffffffffffffffffffffffffffffffffffffffffffffffffffffffffffff8261159e565b6115e5868361159e565b95508019841693508086168417925050509392505050565b6000819050919050565b600061162261161d61161884610ce5565b6115fd565b610ce5565b9050919050565b6000819050919050565b61163c83611607565b61165061164882611629565b8484546115ab565b825550505050565b600090565b611665611658565b611670818484611633565b505050565b5b818110156116945761168960008261165d565b600181019050611676565b5050565b601f8211156116d9576116aa81611579565b6116b38461158e565b810160208510156116c2578190505b6116d66116ce8561158e565b830182611675565b50505b505050565b600082821c905092915050565b60006116fc600019846008026116de565b1980831691505092915050565b600061171583836116eb565b9150826002028217905092915050565b61172e82610d48565b67ffffffffffffffff81111561174757611746610ec2565b5b6117518254611465565b61175c828285611698565b600060209050601f83116001811461178f576000841561177d578287015190505b6117878582611709565b8655506117ef565b601f19841661179d86611579565b60005b828110156117c5578489015182556001820191506020850194506020810190506117a0565b868310156117e257848901516117de601f8916826116eb565b8355505b6001600288020188555050505b505050505050565b600060808201905061180c6000830187610dd8565b818103602083015261181e8186610d9f565b905061182d6040830185610dd8565b61183a6060830184610e19565b95945050505050565b7f4e487b7100000000000000000000000000000000000000000000000000000000600052603260045260246000fd5b7f446561646c696e65207061737365640000000000000000000000000000000000600082015250565b60006118a8600f83610d53565b91506118b382611872565b602082019050919050565b600060208201905081810360008301526118d78161189b565b9050919050565b7f416c726561647920706169640000000000000000000000000000000000000000600082015250565b6000611914600c83610d53565b915061191f826118de565b602082019050919050565b6000602082019050818103600083015261194381611907565b9050919050565b7f4e6f742061207061727469636970616e74000000000000000000000000000000600082015250565b6000611980601183610d53565b915061198b8261194a565b602082019050919050565b600060208201905081810360008301526119af81611973565b9050919050565b7f4e487b7100000000000000000000000000000000000000000000000000000000600052601260045260246000fd5b60006119f082610ce5565b91506119fb83610ce5565b925082611a0b57611a0a6119b6565b5b828204905092915050565b7f496e73756666696369656e74207061796d656e74000000000000000000000000600082015250565b6000611a4c601483610d53565b9150611a5782611a16565b602082019050919050565b60006020820190508181036000830152611a7b81611a3f565b905091905056fea264697066735822122025b731dd5ca0c508164c0dc6c09a4395d3c5ed19cb28ba3341452afb6968f93764736f6c63430008140033",
  "linkReferences": {},
  "deployedLinkReferences": {}
}